{
  "contractName": "Media",
  "abi": [
    {
      "inputs": [
        {
          "internalType": "address",
          "name": "marketContractAddr",
          "type": "address"
        }
      ],
      "stateMutability": "nonpayable",
      "type": "constructor"
    },
    {
      "anonymous": false,
      "inputs": [
        {
          "indexed": true,
          "internalType": "address",
          "name": "owner",
          "type": "address"
        },
        {
          "indexed": true,
          "internalType": "address",
          "name": "approved",
          "type": "address"
        },
        {
          "indexed": true,
          "internalType": "uint256",
          "name": "tokenId",
          "type": "uint256"
        }
      ],
      "name": "Approval",
      "type": "event"
    },
    {
      "anonymous": false,
      "inputs": [
        {
          "indexed": true,
          "internalType": "address",
          "name": "owner",
          "type": "address"
        },
        {
          "indexed": true,
          "internalType": "address",
          "name": "operator",
          "type": "address"
        },
        {
          "indexed": false,
          "internalType": "bool",
          "name": "approved",
          "type": "bool"
        }
      ],
      "name": "ApprovalForAll",
      "type": "event"
    },
    {
      "anonymous": false,
      "inputs": [
        {
          "indexed": true,
          "internalType": "uint256",
          "name": "_tokenId",
          "type": "uint256"
        },
        {
          "indexed": false,
          "internalType": "address",
          "name": "owner",
          "type": "address"
        },
        {
          "indexed": false,
          "internalType": "string",
          "name": "_uri",
          "type": "string"
        }
      ],
      "name": "TokenMetadataURIUpdated",
      "type": "event"
    },
    {
      "anonymous": false,
      "inputs": [
        {
          "indexed": true,
          "internalType": "uint256",
          "name": "_tokenId",
          "type": "uint256"
        },
        {
          "indexed": false,
          "internalType": "address",
          "name": "owner",
          "type": "address"
        },
        {
          "indexed": false,
          "internalType": "string",
          "name": "_uri",
          "type": "string"
        }
      ],
      "name": "TokenURIUpdated",
      "type": "event"
    },
    {
      "anonymous": false,
      "inputs": [
        {
          "indexed": true,
          "internalType": "address",
          "name": "from",
          "type": "address"
        },
        {
          "indexed": true,
          "internalType": "address",
          "name": "to",
          "type": "address"
        },
        {
          "indexed": true,
          "internalType": "uint256",
          "name": "tokenId",
          "type": "uint256"
        }
      ],
      "name": "Transfer",
      "type": "event"
    },
    {
      "inputs": [],
      "name": "MINT_WITH_SIG_TYPEHASH",
      "outputs": [
        {
          "internalType": "bytes32",
          "name": "",
          "type": "bytes32"
        }
      ],
      "stateMutability": "view",
      "type": "function",
      "constant": true
    },
    {
      "inputs": [],
      "name": "PERMIT_TYPEHASH",
      "outputs": [
        {
          "internalType": "bytes32",
          "name": "",
          "type": "bytes32"
        }
      ],
      "stateMutability": "view",
      "type": "function",
      "constant": true
    },
    {
      "inputs": [
        {
          "internalType": "address",
          "name": "to",
          "type": "address"
        },
        {
          "internalType": "uint256",
          "name": "tokenId",
          "type": "uint256"
        }
      ],
      "name": "approve",
      "outputs": [],
      "stateMutability": "nonpayable",
      "type": "function"
    },
    {
      "inputs": [
        {
          "internalType": "address",
          "name": "owner",
          "type": "address"
        }
      ],
      "name": "balanceOf",
      "outputs": [
        {
          "internalType": "uint256",
          "name": "",
          "type": "uint256"
        }
      ],
      "stateMutability": "view",
      "type": "function",
      "constant": true
    },
    {
      "inputs": [
        {
          "internalType": "uint256",
          "name": "tokenId",
          "type": "uint256"
        }
      ],
      "name": "getApproved",
      "outputs": [
        {
          "internalType": "address",
          "name": "",
          "type": "address"
        }
      ],
      "stateMutability": "view",
      "type": "function",
      "constant": true
    },
    {
      "inputs": [
        {
          "internalType": "address",
          "name": "owner",
          "type": "address"
        },
        {
          "internalType": "address",
          "name": "operator",
          "type": "address"
        }
      ],
      "name": "isApprovedForAll",
      "outputs": [
        {
          "internalType": "bool",
          "name": "",
          "type": "bool"
        }
      ],
      "stateMutability": "view",
      "type": "function",
      "constant": true
    },
    {
      "inputs": [],
      "name": "marketContract",
      "outputs": [
        {
          "internalType": "address",
          "name": "",
          "type": "address"
        }
      ],
      "stateMutability": "view",
      "type": "function",
      "constant": true
    },
    {
      "inputs": [
        {
          "internalType": "address",
          "name": "",
          "type": "address"
        }
      ],
      "name": "mintWithSigNonces",
      "outputs": [
        {
          "internalType": "uint256",
          "name": "",
          "type": "uint256"
        }
      ],
      "stateMutability": "view",
      "type": "function",
      "constant": true
    },
    {
      "inputs": [],
      "name": "name",
      "outputs": [
        {
          "internalType": "string",
          "name": "",
          "type": "string"
        }
      ],
      "stateMutability": "view",
      "type": "function",
      "constant": true
    },
    {
      "inputs": [
        {
          "internalType": "uint256",
          "name": "tokenId",
          "type": "uint256"
        }
      ],
      "name": "ownerOf",
      "outputs": [
        {
          "internalType": "address",
          "name": "",
          "type": "address"
        }
      ],
      "stateMutability": "view",
      "type": "function",
      "constant": true
    },
    {
      "inputs": [
        {
          "internalType": "address",
          "name": "",
          "type": "address"
        },
        {
          "internalType": "uint256",
          "name": "",
          "type": "uint256"
        }
      ],
      "name": "permitNonces",
      "outputs": [
        {
          "internalType": "uint256",
          "name": "",
          "type": "uint256"
        }
      ],
      "stateMutability": "view",
      "type": "function",
      "constant": true
    },
    {
      "inputs": [
        {
          "internalType": "uint256",
          "name": "",
          "type": "uint256"
        }
      ],
      "name": "previousTokenOwners",
      "outputs": [
        {
          "internalType": "address",
          "name": "",
          "type": "address"
        }
      ],
      "stateMutability": "view",
      "type": "function",
      "constant": true
    },
    {
      "inputs": [
        {
          "internalType": "address",
          "name": "from",
          "type": "address"
        },
        {
          "internalType": "address",
          "name": "to",
          "type": "address"
        },
        {
          "internalType": "uint256",
          "name": "tokenId",
          "type": "uint256"
        }
      ],
      "name": "safeTransferFrom",
      "outputs": [],
      "stateMutability": "nonpayable",
      "type": "function"
    },
    {
      "inputs": [
        {
          "internalType": "address",
          "name": "from",
          "type": "address"
        },
        {
          "internalType": "address",
          "name": "to",
          "type": "address"
        },
        {
          "internalType": "uint256",
          "name": "tokenId",
          "type": "uint256"
        },
        {
          "internalType": "bytes",
          "name": "_data",
          "type": "bytes"
        }
      ],
      "name": "safeTransferFrom",
      "outputs": [],
      "stateMutability": "nonpayable",
      "type": "function"
    },
    {
      "inputs": [
        {
          "internalType": "address",
          "name": "operator",
          "type": "address"
        },
        {
          "internalType": "bool",
          "name": "approved",
          "type": "bool"
        }
      ],
      "name": "setApprovalForAll",
      "outputs": [],
      "stateMutability": "nonpayable",
      "type": "function"
    },
    {
      "inputs": [
        {
          "internalType": "bytes4",
          "name": "interfaceId",
          "type": "bytes4"
        }
      ],
      "name": "supportsInterface",
      "outputs": [
        {
          "internalType": "bool",
          "name": "",
          "type": "bool"
        }
      ],
      "stateMutability": "view",
      "type": "function",
      "constant": true
    },
    {
      "inputs": [],
      "name": "symbol",
      "outputs": [
        {
          "internalType": "string",
          "name": "",
          "type": "string"
        }
      ],
      "stateMutability": "view",
      "type": "function",
      "constant": true
    },
    {
      "inputs": [
        {
          "internalType": "uint256",
          "name": "",
          "type": "uint256"
        }
      ],
      "name": "tokenContentHashes",
      "outputs": [
        {
          "internalType": "bytes32",
          "name": "",
          "type": "bytes32"
        }
      ],
      "stateMutability": "view",
      "type": "function",
      "constant": true
    },
    {
      "inputs": [
        {
          "internalType": "uint256",
          "name": "",
          "type": "uint256"
        }
      ],
      "name": "tokenCreators",
      "outputs": [
        {
          "internalType": "address",
          "name": "",
          "type": "address"
        }
      ],
      "stateMutability": "view",
      "type": "function",
      "constant": true
    },
    {
      "inputs": [
        {
          "internalType": "uint256",
          "name": "",
          "type": "uint256"
        }
      ],
      "name": "tokenMetadataHashes",
      "outputs": [
        {
          "internalType": "bytes32",
          "name": "",
          "type": "bytes32"
        }
      ],
      "stateMutability": "view",
      "type": "function",
      "constant": true
    },
    {
      "inputs": [
        {
          "internalType": "address",
          "name": "from",
          "type": "address"
        },
        {
          "internalType": "address",
          "name": "to",
          "type": "address"
        },
        {
          "internalType": "uint256",
          "name": "tokenId",
          "type": "uint256"
        }
      ],
      "name": "transferFrom",
      "outputs": [],
      "stateMutability": "nonpayable",
      "type": "function"
    },
    {
      "inputs": [
        {
          "internalType": "uint256",
          "name": "tokenId",
          "type": "uint256"
        }
      ],
      "name": "tokenURI",
      "outputs": [
        {
          "internalType": "string",
          "name": "",
          "type": "string"
        }
      ],
      "stateMutability": "view",
      "type": "function",
      "constant": true
    },
    {
      "inputs": [
        {
          "internalType": "uint256",
          "name": "tokenId",
          "type": "uint256"
        }
      ],
      "name": "tokenMetadataURI",
      "outputs": [
        {
          "internalType": "string",
          "name": "",
          "type": "string"
        }
      ],
      "stateMutability": "view",
      "type": "function",
      "constant": true
    },
    {
      "inputs": [
        {
          "components": [
            {
              "internalType": "string",
              "name": "tokenURI",
              "type": "string"
            },
            {
              "internalType": "string",
              "name": "metadataURI",
              "type": "string"
            },
            {
              "internalType": "bytes32",
              "name": "contentHash",
              "type": "bytes32"
            },
            {
              "internalType": "bytes32",
              "name": "metadataHash",
              "type": "bytes32"
            }
          ],
          "internalType": "struct IMedia.MediaData",
          "name": "data",
          "type": "tuple"
        },
        {
          "components": [
            {
              "components": [
                {
                  "internalType": "uint256",
                  "name": "value",
                  "type": "uint256"
                }
              ],
              "internalType": "struct Decimal.D256",
              "name": "prevOwner",
              "type": "tuple"
            },
            {
              "components": [
                {
                  "internalType": "uint256",
                  "name": "value",
                  "type": "uint256"
                }
              ],
              "internalType": "struct Decimal.D256",
              "name": "creator",
              "type": "tuple"
            },
            {
              "components": [
                {
                  "internalType": "uint256",
                  "name": "value",
                  "type": "uint256"
                }
              ],
              "internalType": "struct Decimal.D256",
              "name": "owner",
              "type": "tuple"
            }
          ],
          "internalType": "struct IMarket.BidShares",
          "name": "bidShares",
          "type": "tuple"
        }
      ],
      "name": "mint",
      "outputs": [],
      "stateMutability": "nonpayable",
      "type": "function"
    },
    {
      "inputs": [
        {
          "internalType": "address",
          "name": "creator",
          "type": "address"
        },
        {
          "components": [
            {
              "internalType": "string",
              "name": "tokenURI",
              "type": "string"
            },
            {
              "internalType": "string",
              "name": "metadataURI",
              "type": "string"
            },
            {
              "internalType": "bytes32",
              "name": "contentHash",
              "type": "bytes32"
            },
            {
              "internalType": "bytes32",
              "name": "metadataHash",
              "type": "bytes32"
            }
          ],
          "internalType": "struct IMedia.MediaData",
          "name": "data",
          "type": "tuple"
        },
        {
          "components": [
            {
              "components": [
                {
                  "internalType": "uint256",
                  "name": "value",
                  "type": "uint256"
                }
              ],
              "internalType": "struct Decimal.D256",
              "name": "prevOwner",
              "type": "tuple"
            },
            {
              "components": [
                {
                  "internalType": "uint256",
                  "name": "value",
                  "type": "uint256"
                }
              ],
              "internalType": "struct Decimal.D256",
              "name": "creator",
              "type": "tuple"
            },
            {
              "components": [
                {
                  "internalType": "uint256",
                  "name": "value",
                  "type": "uint256"
                }
              ],
              "internalType": "struct Decimal.D256",
              "name": "owner",
              "type": "tuple"
            }
          ],
          "internalType": "struct IMarket.BidShares",
          "name": "bidShares",
          "type": "tuple"
        },
        {
          "components": [
            {
              "internalType": "uint256",
              "name": "deadline",
              "type": "uint256"
            },
            {
              "internalType": "uint8",
              "name": "v",
              "type": "uint8"
            },
            {
              "internalType": "bytes32",
              "name": "r",
              "type": "bytes32"
            },
            {
              "internalType": "bytes32",
              "name": "s",
              "type": "bytes32"
            }
          ],
          "internalType": "struct IMedia.EIP712Signature",
          "name": "sig",
          "type": "tuple"
        }
      ],
      "name": "mintWithSig",
      "outputs": [],
      "stateMutability": "nonpayable",
      "type": "function"
    },
    {
      "inputs": [
        {
          "internalType": "uint256",
          "name": "tokenId",
          "type": "uint256"
        },
        {
          "internalType": "address",
          "name": "recipient",
          "type": "address"
        }
      ],
      "name": "auctionTransfer",
      "outputs": [],
      "stateMutability": "nonpayable",
      "type": "function"
    },
    {
      "inputs": [
        {
          "internalType": "uint256",
          "name": "tokenId",
          "type": "uint256"
        },
        {
          "components": [
            {
              "internalType": "uint256",
              "name": "amount",
              "type": "uint256"
            },
            {
              "internalType": "address",
              "name": "currency",
              "type": "address"
            }
          ],
          "internalType": "struct IMarket.Ask",
          "name": "ask",
          "type": "tuple"
        }
      ],
      "name": "setAsk",
      "outputs": [],
      "stateMutability": "nonpayable",
      "type": "function"
    },
    {
      "inputs": [
        {
          "internalType": "uint256",
          "name": "tokenId",
          "type": "uint256"
        }
      ],
      "name": "removeAsk",
      "outputs": [],
      "stateMutability": "nonpayable",
      "type": "function"
    },
    {
      "inputs": [
        {
          "internalType": "uint256",
          "name": "tokenId",
          "type": "uint256"
        },
        {
          "components": [
            {
              "internalType": "uint256",
              "name": "amount",
              "type": "uint256"
            },
            {
              "internalType": "address",
              "name": "currency",
              "type": "address"
            },
            {
              "internalType": "address",
              "name": "bidder",
              "type": "address"
            },
            {
              "internalType": "address",
              "name": "recipient",
              "type": "address"
            },
            {
              "components": [
                {
                  "internalType": "uint256",
                  "name": "value",
                  "type": "uint256"
                }
              ],
              "internalType": "struct Decimal.D256",
              "name": "sellOnShare",
              "type": "tuple"
            }
          ],
          "internalType": "struct IMarket.Bid",
          "name": "bid",
          "type": "tuple"
        }
      ],
      "name": "setBid",
      "outputs": [],
      "stateMutability": "nonpayable",
      "type": "function"
    },
    {
      "inputs": [
        {
          "internalType": "uint256",
          "name": "tokenId",
          "type": "uint256"
        }
      ],
      "name": "removeBid",
      "outputs": [],
      "stateMutability": "nonpayable",
      "type": "function"
    },
    {
      "inputs": [
        {
          "internalType": "uint256",
          "name": "tokenId",
          "type": "uint256"
        },
        {
          "components": [
            {
              "internalType": "uint256",
              "name": "amount",
              "type": "uint256"
            },
            {
              "internalType": "address",
              "name": "currency",
              "type": "address"
            },
            {
              "internalType": "address",
              "name": "bidder",
              "type": "address"
            },
            {
              "internalType": "address",
              "name": "recipient",
              "type": "address"
            },
            {
              "components": [
                {
                  "internalType": "uint256",
                  "name": "value",
                  "type": "uint256"
                }
              ],
              "internalType": "struct Decimal.D256",
              "name": "sellOnShare",
              "type": "tuple"
            }
          ],
          "internalType": "struct IMarket.Bid",
          "name": "bid",
          "type": "tuple"
        }
      ],
      "name": "acceptBid",
      "outputs": [],
      "stateMutability": "nonpayable",
      "type": "function"
    },
    {
      "inputs": [
        {
          "internalType": "uint256",
          "name": "tokenId",
          "type": "uint256"
        }
      ],
      "name": "burn",
      "outputs": [],
      "stateMutability": "nonpayable",
      "type": "function"
    },
    {
      "inputs": [
        {
          "internalType": "uint256",
          "name": "tokenId",
          "type": "uint256"
        }
      ],
      "name": "revokeApproval",
      "outputs": [],
      "stateMutability": "nonpayable",
      "type": "function"
    },
    {
      "inputs": [
        {
          "internalType": "uint256",
          "name": "tokenId",
          "type": "uint256"
        },
        {
          "internalType": "string",
          "name": "tokenURI",
          "type": "string"
        }
      ],
      "name": "updateTokenURI",
      "outputs": [],
      "stateMutability": "nonpayable",
      "type": "function"
    },
    {
      "inputs": [
        {
          "internalType": "uint256",
          "name": "tokenId",
          "type": "uint256"
        },
        {
          "internalType": "string",
          "name": "metadataURI",
          "type": "string"
        }
      ],
      "name": "updateTokenMetadataURI",
      "outputs": [],
      "stateMutability": "nonpayable",
      "type": "function"
    },
    {
      "inputs": [
        {
          "internalType": "address",
          "name": "spender",
          "type": "address"
        },
        {
          "internalType": "uint256",
          "name": "tokenId",
          "type": "uint256"
        },
        {
          "components": [
            {
              "internalType": "uint256",
              "name": "deadline",
              "type": "uint256"
            },
            {
              "internalType": "uint8",
              "name": "v",
              "type": "uint8"
            },
            {
              "internalType": "bytes32",
              "name": "r",
              "type": "bytes32"
            },
            {
              "internalType": "bytes32",
              "name": "s",
              "type": "bytes32"
            }
          ],
          "internalType": "struct IMedia.EIP712Signature",
          "name": "sig",
          "type": "tuple"
        }
      ],
      "name": "permit",
      "outputs": [],
      "stateMutability": "nonpayable",
      "type": "function"
    }
  ],
  "bytecode": "0x60806040523480156200001157600080fd5b5060405162005eff38038062005eff8339818101604052810190620000379190620001ee565b6040518060400160405280600481526020017f5a6f7261000000000000000000000000000000000000000000000000000000008152506040518060400160405280600481526020017f5a4f5241000000000000000000000000000000000000000000000000000000008152508160009080519060200190620000bb92919062000127565b508060019080519060200190620000d492919062000127565b505050600160068190555080600760006101000a81548173ffffffffffffffffffffffffffffffffffffffff021916908373ffffffffffffffffffffffffffffffffffffffff16021790555050620002cd565b82805462000135906200024e565b90600052602060002090601f016020900481019282620001595760008555620001a5565b82601f106200017457805160ff1916838001178555620001a5565b82800160010185558215620001a5579182015b82811115620001a457825182559160200191906001019062000187565b5b509050620001b49190620001b8565b5090565b5b80821115620001d3576000816000905550600101620001b9565b5090565b600081519050620001e881620002b3565b92915050565b6000602082840312156200020157600080fd5b60006200021184828501620001d7565b91505092915050565b600062000227826200022e565b9050919050565b600073ffffffffffffffffffffffffffffffffffffffff82169050919050565b600060028204905060018216806200026757607f821691505b602082108114156200027e576200027d62000284565b5b50919050565b7f4e487b7100000000000000000000000000000000000000000000000000000000600052602260045260246000fd5b620002be816200021a565b8114620002ca57600080fd5b50565b615c2280620002dd6000396000f3fe608060405234801561001057600080fd5b506004361061021c5760003560e01c806370a0823111610125578063b88d4fde116100ad578063e0fd045f1161007c578063e0fd045f14610643578063e985e9c514610673578063f6b630f0146106a3578063f8ccd5de146106bf578063fad32197146106ef5761021c565b8063b88d4fde146105bd578063ba339399146105d9578063c87b56dd146105f5578063de5236fb146106255761021c565b80639d8e7260116100f45780639d8e72601461051b578063a1794bcd1461054b578063a22cb46514610569578063b1e130fc14610585578063b320f459146105a15761021c565b806370a082311461049557806375682e79146104c55780637a7a1202146104e157806395d89b41146104fd5761021c565b806323b872dd116101a857806342842e0e1161017757806342842e0e146103f557806342966c68146104115780635bf624221461042d57806362f24b70146104495780636352211e146104655761021c565b806323b872dd1461038357806328220f351461039f5780632cca3237146103bb57806330adf81f146103d75761021c565b8063095ea7b3116101ef578063095ea7b3146102cf5780630bcd899b146102eb5780630e2a17781461031b578063157c3df91461033757806318e97fd1146103675761021c565b806301ddc3b51461022157806301ffc9a71461025157806306fdde0314610281578063081812fc1461029f575b600080fd5b61023b60048036038101906102369190614203565b61071f565b6040516102489190615195565b60405180910390f35b61026b6004803603810190610266919061415d565b610737565b604051610278919061517a565b60405180910390f35b610289610819565b60405161029691906152fc565b60405180910390f35b6102b960048036038101906102b49190614203565b6108ab565b6040516102c691906150e1565b60405180910390f35b6102e960048036038101906102e491906140d2565b610930565b005b61030560048036038101906103009190613eeb565b610a48565b604051610312919061571e565b60405180910390f35b6103356004803603810190610330919061410e565b610a60565b005b610351600480360381019061034c9190614203565b610de0565b60405161035e91906152fc565b60405180910390f35b610381600480360381019061037c9190614268565b610ed2565b005b61039d60048036038101906103989190613f50565b6110ea565b005b6103b960048036038101906103b49190614203565b61114a565b005b6103d560048036038101906103d091906141af565b61127d565b005b6103df6112e2565b6040516103ec9190615195565b60405180910390f35b61040f600480360381019061040a9190613f50565b611309565b005b61042b60048036038101906104269190614203565b611329565b005b610447600480360381019061044291906142fc565b6114d1565b005b610463600480360381019061045e91906142c0565b611678565b005b61047f600480360381019061047a9190614203565b6117ae565b60405161048c91906150e1565b60405180910390f35b6104af60048036038101906104aa9190613eeb565b611860565b6040516104bc919061571e565b60405180910390f35b6104df60048036038101906104da9190614268565b611918565b005b6104fb60048036038101906104f69190614056565b611b30565b005b610505611de9565b60405161051291906152fc565b60405180910390f35b61053560048036038101906105309190614203565b611e7b565b60405161054291906150e1565b60405180910390f35b610553611eae565b60405161056091906150e1565b60405180910390f35b610583600480360381019061057e919061401a565b611ed4565b005b61059f600480360381019061059a9190614203565b612055565b005b6105bb60048036038101906105b69190614203565b61212f565b005b6105d760048036038101906105d29190613f9f565b612264565b005b6105f360048036038101906105ee91906142fc565b6122c6565b005b61060f600480360381019061060a9190614203565b6123fc565b60405161061c91906152fc565b60405180910390f35b61062d6124f4565b60405161063a9190615195565b60405180910390f35b61065d60048036038101906106589190614203565b61251b565b60405161066a91906150e1565b60405180910390f35b61068d60048036038101906106889190613f14565b61254e565b60405161069a919061517a565b60405180910390f35b6106bd60048036038101906106b8919061422c565b6125e2565b005b6106d960048036038101906106d491906140d2565b6126f3565b6040516106e6919061571e565b60405180910390f35b61070960048036038101906107049190614203565b612718565b6040516107169190615195565b60405180910390f35b600c6020528060005260406000206000915090505481565b60007f80ac58cd000000000000000000000000000000000000000000000000000000007bffffffffffffffffffffffffffffffffffffffffffffffffffffffff1916827bffffffffffffffffffffffffffffffffffffffffffffffffffffffff1916148061080257507f5b5e139f000000000000000000000000000000000000000000000000000000007bffffffffffffffffffffffffffffffffffffffffffffffffffffffff1916827bffffffffffffffffffffffffffffffffffffffffffffffffffffffff1916145b80610812575061081182612730565b5b9050919050565b60606000805461082890615a3f565b80601f016020809104026020016040519081016040528092919081815260200182805461085490615a3f565b80156108a15780601f10610876576101008083540402835291602001916108a1565b820191906000526020600020905b81548152906001019060200180831161088457829003601f168201915b5050505050905090565b60006108b68261279a565b6108f5576040517f08c379a00000000000000000000000000000000000000000000000000000000081526004016108ec9061557e565b60405180910390fd5b6004600083815260200190815260200160002060009054906101000a900473ffffffffffffffffffffffffffffffffffffffff169050919050565b600061093b826117ae565b90508073ffffffffffffffffffffffffffffffffffffffff168373ffffffffffffffffffffffffffffffffffffffff1614156109ac576040517f08c379a00000000000000000000000000000000000000000000000000000000081526004016109a39061563e565b60405180910390fd5b8073ffffffffffffffffffffffffffffffffffffffff166109cb612806565b73ffffffffffffffffffffffffffffffffffffffff1614806109fa57506109f9816109f4612806565b61254e565b5b610a39576040517f08c379a0000000000000000000000000000000000000000000000000000000008152600401610a309061547e565b60405180910390fd5b610a43838361280e565b505050565b60106020528060005260406000206000915090505481565b60026006541415610aa6576040517f08c379a0000000000000000000000000000000000000000000000000000000008152600401610a9d906156de565b60405180910390fd5b600260068190555081610ab88161279a565b610af7576040517f08c379a0000000000000000000000000000000000000000000000000000000008152600401610aee906156be565b60405180910390fd5b600082600001511480610b0e575042826000015110155b610b4d576040517f08c379a0000000000000000000000000000000000000000000000000000000008152600401610b44906154de565b60405180910390fd5b600073ffffffffffffffffffffffffffffffffffffffff168473ffffffffffffffffffffffffffffffffffffffff161415610bbd576040517f08c379a0000000000000000000000000000000000000000000000000000000008152600401610bb49061535e565b60405180910390fd5b6000610bc76128c7565b90506000817f49ecf333e5b8c95c40fdafc95c1ad136e8914a8fb55e9dc8bb01eaa83a2df9ad60001b8787600f6000610bff8b6117ae565b73ffffffffffffffffffffffffffffffffffffffff1673ffffffffffffffffffffffffffffffffffffffff16815260200190815260200160002060008a81526020019081526020016000206000815480929190610c5b90615a71565b919050558860000151604051602001610c789594939291906151b0565b60405160208183030381529060405280519060200120604051602001610c9f9291906150aa565b604051602081830303815290604052805190602001209050600060018286602001518760400151886060015160405160008152602001604052604051610ce894939291906152b7565b6020604051602081039080840390855afa158015610d0a573d6000803e3d6000fd5b505050602060405103519050600073ffffffffffffffffffffffffffffffffffffffff168173ffffffffffffffffffffffffffffffffffffffff1614158015610d8657508073ffffffffffffffffffffffffffffffffffffffff16610d6e876117ae565b73ffffffffffffffffffffffffffffffffffffffff16145b610dc5576040517f08c379a0000000000000000000000000000000000000000000000000000000008152600401610dbc9061569e565b60405180910390fd5b610dcf878761280e565b505050506001600681905550505050565b60608180610dee601261299a565b11610e2e576040517f08c379a0000000000000000000000000000000000000000000000000000000008152600401610e259061531e565b60405180910390fd5b600d60008481526020019081526020016000208054610e4c90615a3f565b80601f0160208091040260200160405190810160405280929190818152602001828054610e7890615a3f565b8015610ec55780601f10610e9a57610100808354040283529160200191610ec5565b820191906000526020600020905b815481529060010190602001808311610ea857829003601f168201915b5050505050915050919050565b60026006541415610f18576040517f08c379a0000000000000000000000000000000000000000000000000000000008152600401610f0f906156de565b60405180910390fd5b60026006819055503383610f2c82826129a8565b610f6b576040517f08c379a0000000000000000000000000000000000000000000000000000000008152600401610f62906155be565b60405180910390fd5b846000801b600b6000838152602001908152602001600020541415610fc5576040517f08c379a0000000000000000000000000000000000000000000000000000000008152600401610fbc906155fe565b60405180910390fd5b84848080601f016020809104026020016040519081016040528093929190818152602001838380828437600081840152601f19601f8201169050808301925050505050505060008151141561104f576040517f08c379a0000000000000000000000000000000000000000000000000000000008152600401611046906156fe565b60405180910390fd5b61109d8787878080601f016020809104026020016040519081016040528093929190818152602001838380828437600081840152601f19601f82011690508083019250505050505050612a86565b867f702fe2dc2dc0f68023540aa4a1e11811c0f29112f6ebf01e61b90538e4f298103388886040516110d193929190615148565b60405180910390a2505050506001600681905550505050565b6110fb6110f5612806565b826129a8565b61113a576040517f08c379a00000000000000000000000000000000000000000000000000000000081526004016111319061567e565b60405180910390fd5b611145838383612afa565b505050565b60026006541415611190576040517f08c379a0000000000000000000000000000000000000000000000000000000008152600401611187906156de565b60405180910390fd5b600260068190555033816111a482826129a8565b6111e3576040517f08c379a00000000000000000000000000000000000000000000000000000000081526004016111da906155be565b60405180910390fd5b600760009054906101000a900473ffffffffffffffffffffffffffffffffffffffff1673ffffffffffffffffffffffffffffffffffffffff166328220f35846040518263ffffffff1660e01b815260040161123e919061571e565b600060405180830381600087803b15801561125857600080fd5b505af115801561126c573d6000803e3d6000fd5b505050505050600160068190555050565b600260065414156112c3576040517f08c379a00000000000000000000000000000000000000000000000000000000081526004016112ba906156de565b60405180910390fd5b60026006819055506112d6338383612b97565b60016006819055505050565b7f49ecf333e5b8c95c40fdafc95c1ad136e8914a8fb55e9dc8bb01eaa83a2df9ad60001b81565b61132483838360405180602001604052806000815250612264565b505050565b6002600654141561136f576040517f08c379a0000000000000000000000000000000000000000000000000000000008152600401611366906156de565b60405180910390fd5b6002600681905550806113818161279a565b6113c0576040517f08c379a00000000000000000000000000000000000000000000000000000000081526004016113b7906156be565b60405180910390fd5b33826113cc82826129a8565b61140b576040517f08c379a0000000000000000000000000000000000000000000000000000000008152600401611402906155be565b60405180910390fd5b6000611416856117ae565b90508073ffffffffffffffffffffffffffffffffffffffff166009600087815260200190815260200160002060009054906101000a900473ffffffffffffffffffffffffffffffffffffffff1673ffffffffffffffffffffffffffffffffffffffff16146114b9576040517f08c379a00000000000000000000000000000000000000000000000000000000081526004016114b09061555e565b60405180910390fd5b6114c285612f3e565b50505050600160068190555050565b60026006541415611517576040517f08c379a000000000000000000000000000000000000000000000000000000000815260040161150e906156de565b60405180910390fd5b6002600681905550816115298161279a565b611568576040517f08c379a000000000000000000000000000000000000000000000000000000000815260040161155f906156be565b60405180910390fd5b816040015173ffffffffffffffffffffffffffffffffffffffff163373ffffffffffffffffffffffffffffffffffffffff16146115da576040517f08c379a00000000000000000000000000000000000000000000000000000000081526004016115d19061539e565b60405180910390fd5b600760009054906101000a900473ffffffffffffffffffffffffffffffffffffffff1673ffffffffffffffffffffffffffffffffffffffff1663bdb586988484336040518463ffffffff1660e01b8152600401611639939291906157dd565b600060405180830381600087803b15801561165357600080fd5b505af1158015611667573d6000803e3d6000fd5b505050505060016006819055505050565b600260065414156116be576040517f08c379a00000000000000000000000000000000000000000000000000000000081526004016116b5906156de565b60405180910390fd5b600260068190555033826116d282826129a8565b611711576040517f08c379a0000000000000000000000000000000000000000000000000000000008152600401611708906155be565b60405180910390fd5b600760009054906101000a900473ffffffffffffffffffffffffffffffffffffffff1673ffffffffffffffffffffffffffffffffffffffff166362f24b7085856040518363ffffffff1660e01b815260040161176e929190615762565b600060405180830381600087803b15801561178857600080fd5b505af115801561179c573d6000803e3d6000fd5b50505050505060016006819055505050565b6000806002600084815260200190815260200160002060009054906101000a900473ffffffffffffffffffffffffffffffffffffffff169050600073ffffffffffffffffffffffffffffffffffffffff168173ffffffffffffffffffffffffffffffffffffffff161415611857576040517f08c379a000000000000000000000000000000000000000000000000000000000815260040161184e906154be565b60405180910390fd5b80915050919050565b60008073ffffffffffffffffffffffffffffffffffffffff168273ffffffffffffffffffffffffffffffffffffffff1614156118d1576040517f08c379a00000000000000000000000000000000000000000000000000000000081526004016118c89061549e565b60405180910390fd5b600360008373ffffffffffffffffffffffffffffffffffffffff1673ffffffffffffffffffffffffffffffffffffffff168152602001908152602001600020549050919050565b6002600654141561195e576040517f08c379a0000000000000000000000000000000000000000000000000000000008152600401611955906156de565b60405180910390fd5b6002600681905550338361197282826129a8565b6119b1576040517f08c379a00000000000000000000000000000000000000000000000000000000081526004016119a8906155be565b60405180910390fd5b846000801b600c6000838152602001908152602001600020541415611a0b576040517f08c379a0000000000000000000000000000000000000000000000000000000008152600401611a029061541e565b60405180910390fd5b84848080601f016020809104026020016040519081016040528093929190818152602001838380828437600081840152601f19601f82011690508083019250505050505050600081511415611a95576040517f08c379a0000000000000000000000000000000000000000000000000000000008152600401611a8c906156fe565b60405180910390fd5b611ae38787878080601f016020809104026020016040519081016040528093929190818152602001838380828437600081840152601f19601f82011690508083019250505050505050613053565b867fe3df41127db820c79e5b8d541a63e40e3e97b9af96f7a50bded13091b70df9ae338888604051611b1793929190615148565b60405180910390a2505050506001600681905550505050565b60026006541415611b76576040517f08c379a0000000000000000000000000000000000000000000000000000000008152600401611b6d906156de565b60405180910390fd5b6002600681905550600081600001511480611b95575042816000015110155b611bd4576040517f08c379a0000000000000000000000000000000000000000000000000000000008152600401611bcb9061565e565b60405180910390fd5b6000611bde6128c7565b90506000817f2952e482b8e2b192305f87374d7af45dc2eafafe4f50d26a0c02e90f2fdbe14b60001b86604001518760600151876020015160000151601060008c73ffffffffffffffffffffffffffffffffffffffff1673ffffffffffffffffffffffffffffffffffffffff1681526020019081526020016000206000815480929190611c6a90615a71565b919050558860000151604051602001611c8896959493929190615256565b60405160208183030381529060405280519060200120604051602001611caf9291906150aa565b604051602081830303815290604052805190602001209050600060018285602001518660400151876060015160405160008152602001604052604051611cf894939291906152b7565b6020604051602081039080840390855afa158015611d1a573d6000803e3d6000fd5b505050602060405103519050600073ffffffffffffffffffffffffffffffffffffffff168173ffffffffffffffffffffffffffffffffffffffff1614158015611d8e57508073ffffffffffffffffffffffffffffffffffffffff168773ffffffffffffffffffffffffffffffffffffffff16145b611dcd576040517f08c379a0000000000000000000000000000000000000000000000000000000008152600401611dc49061569e565b60405180910390fd5b611dd8818787612b97565b505050600160068190555050505050565b606060018054611df890615a3f565b80601f0160208091040260200160405190810160405280929190818152602001828054611e2490615a3f565b8015611e715780601f10611e4657610100808354040283529160200191611e71565b820191906000526020600020905b815481529060010190602001808311611e5457829003601f168201915b5050505050905090565b60086020528060005260406000206000915054906101000a900473ffffffffffffffffffffffffffffffffffffffff1681565b600760009054906101000a900473ffffffffffffffffffffffffffffffffffffffff1681565b611edc612806565b73ffffffffffffffffffffffffffffffffffffffff168273ffffffffffffffffffffffffffffffffffffffff161415611f4a576040517f08c379a0000000000000000000000000000000000000000000000000000000008152600401611f41906153fe565b60405180910390fd5b8060056000611f57612806565b73ffffffffffffffffffffffffffffffffffffffff1673ffffffffffffffffffffffffffffffffffffffff16815260200190815260200160002060008473ffffffffffffffffffffffffffffffffffffffff1673ffffffffffffffffffffffffffffffffffffffff16815260200190815260200160002060006101000a81548160ff0219169083151502179055508173ffffffffffffffffffffffffffffffffffffffff16612004612806565b73ffffffffffffffffffffffffffffffffffffffff167f17307eab39ab6107e8899845ad3d59bd9653f200f220920489ca2b5937696c3183604051612049919061517a565b60405180910390a35050565b6002600654141561209b576040517f08c379a0000000000000000000000000000000000000000000000000000000008152600401612092906156de565b60405180910390fd5b60026006819055506120ac816108ab565b73ffffffffffffffffffffffffffffffffffffffff163373ffffffffffffffffffffffffffffffffffffffff1614612119576040517f08c379a0000000000000000000000000000000000000000000000000000000008152600401612110906153be565b60405180910390fd5b61212460008261280e565b600160068190555050565b60026006541415612175576040517f08c379a000000000000000000000000000000000000000000000000000000000815260040161216c906156de565b60405180910390fd5b60026006819055508080612189601261299a565b116121c9576040517f08c379a00000000000000000000000000000000000000000000000000000000081526004016121c09061531e565b60405180910390fd5b600760009054906101000a900473ffffffffffffffffffffffffffffffffffffffff1673ffffffffffffffffffffffffffffffffffffffff1663776a083583336040518363ffffffff1660e01b8152600401612226929190615739565b600060405180830381600087803b15801561224057600080fd5b505af1158015612254573d6000803e3d6000fd5b5050505050600160068190555050565b61227561226f612806565b836129a8565b6122b4576040517f08c379a00000000000000000000000000000000000000000000000000000000081526004016122ab9061567e565b60405180910390fd5b6122c0848484846130c9565b50505050565b6002600654141561230c576040517f08c379a0000000000000000000000000000000000000000000000000000000008152600401612303906156de565b60405180910390fd5b6002600681905550338261232082826129a8565b61235f576040517f08c379a0000000000000000000000000000000000000000000000000000000008152600401612356906155be565b60405180910390fd5b600760009054906101000a900473ffffffffffffffffffffffffffffffffffffffff1673ffffffffffffffffffffffffffffffffffffffff1663ba33939985856040518363ffffffff1660e01b81526004016123bc9291906157b4565b600060405180830381600087803b1580156123d657600080fd5b505af11580156123ea573d6000803e3d6000fd5b50505050505060016006819055505050565b6060818061240a601261299a565b1161244a576040517f08c379a00000000000000000000000000000000000000000000000000000000081526004016124419061531e565b60405180910390fd5b600060116000858152602001908152602001600020805461246a90615a3f565b80601f016020809104026020016040519081016040528092919081815260200182805461249690615a3f565b80156124e35780601f106124b8576101008083540402835291602001916124e3565b820191906000526020600020905b8154815290600101906020018083116124c657829003601f168201915b505050505090508092505050919050565b7f2952e482b8e2b192305f87374d7af45dc2eafafe4f50d26a0c02e90f2fdbe14b60001b81565b60096020528060005260406000206000915054906101000a900473ffffffffffffffffffffffffffffffffffffffff1681565b6000600560008473ffffffffffffffffffffffffffffffffffffffff1673ffffffffffffffffffffffffffffffffffffffff16815260200190815260200160002060008373ffffffffffffffffffffffffffffffffffffffff1673ffffffffffffffffffffffffffffffffffffffff16815260200190815260200160002060009054906101000a900460ff16905092915050565b600760009054906101000a900473ffffffffffffffffffffffffffffffffffffffff1673ffffffffffffffffffffffffffffffffffffffff163373ffffffffffffffffffffffffffffffffffffffff1614612672576040517f08c379a00000000000000000000000000000000000000000000000000000000081526004016126699061551e565b60405180910390fd5b61267b826117ae565b6008600084815260200190815260200160002060006101000a81548173ffffffffffffffffffffffffffffffffffffffff021916908373ffffffffffffffffffffffffffffffffffffffff1602179055506126ef6126d8836117ae565b8284604051806020016040528060008152506130c9565b5050565b600f602052816000526040600020602052806000526040600020600091509150505481565b600b6020528060005260406000206000915090505481565b60007f01ffc9a7000000000000000000000000000000000000000000000000000000007bffffffffffffffffffffffffffffffffffffffffffffffffffffffff1916827bffffffffffffffffffffffffffffffffffffffffffffffffffffffff1916149050919050565b60008073ffffffffffffffffffffffffffffffffffffffff166002600084815260200190815260200160002060009054906101000a900473ffffffffffffffffffffffffffffffffffffffff1673ffffffffffffffffffffffffffffffffffffffff1614159050919050565b600033905090565b816004600083815260200190815260200160002060006101000a81548173ffffffffffffffffffffffffffffffffffffffff021916908373ffffffffffffffffffffffffffffffffffffffff160217905550808273ffffffffffffffffffffffffffffffffffffffff16612881836117ae565b73ffffffffffffffffffffffffffffffffffffffff167f8c5be1e5ebec7d5bd14f71427d1e84f3dd0314c0f7b2291e5b200ac8c7c3b92560405160405180910390a45050565b6000804690507f8b73c3c69bb8fe3d512ecc4cf759cc79239f7b179b0ffacaa9a75d522b39400f6040518060400160405280600481526020017f5a6f726100000000000000000000000000000000000000000000000000000000815250805190602001206040518060400160405280600181526020017f310000000000000000000000000000000000000000000000000000000000000081525080519060200120833060405160200161297e959493929190615203565b6040516020818303038152906040528051906020012091505090565b600081600001549050919050565b60006129b38261279a565b6129f2576040517f08c379a00000000000000000000000000000000000000000000000000000000081526004016129e99061545e565b60405180910390fd5b60006129fd836117ae565b90508073ffffffffffffffffffffffffffffffffffffffff168473ffffffffffffffffffffffffffffffffffffffff161480612a6c57508373ffffffffffffffffffffffffffffffffffffffff16612a54846108ab565b73ffffffffffffffffffffffffffffffffffffffff16145b80612a7d5750612a7c818561254e565b5b91505092915050565b612a8f8261279a565b612ace576040517f08c379a0000000000000000000000000000000000000000000000000000000008152600401612ac59061559e565b60405180910390fd5b80601160008481526020019081526020016000209080519060200190612af5929190613a17565b505050565b600760009054906101000a900473ffffffffffffffffffffffffffffffffffffffff1673ffffffffffffffffffffffffffffffffffffffff166328220f35826040518263ffffffff1660e01b8152600401612b55919061571e565b600060405180830381600087803b158015612b6f57600080fd5b505af1158015612b83573d6000803e3d6000fd5b50505050612b92838383613125565b505050565b8160000151600081511415612be1576040517f08c379a0000000000000000000000000000000000000000000000000000000008152600401612bd8906156fe565b60405180910390fd5b8260200151600081511415612c2b576040517f08c379a0000000000000000000000000000000000000000000000000000000008152600401612c22906156fe565b60405180910390fd5b6000801b84604001511415612c75576040517f08c379a0000000000000000000000000000000000000000000000000000000008152600401612c6c9061543e565b60405180910390fd5b60001515600e60008660400151815260200190815260200160002060009054906101000a900460ff16151514612ce0576040517f08c379a0000000000000000000000000000000000000000000000000000000008152600401612cd7906154fe565b60405180910390fd5b6000801b84606001511415612d2a576040517f08c379a0000000000000000000000000000000000000000000000000000000008152600401612d219061561e565b60405180910390fd5b6000612d36601261299a565b9050612d428682613381565b612d4c601261339f565b612d5a8186604001516133b5565b612d6881866060015161341b565b612d76818660200151613053565b612d84818660000151612a86565b6000600a60008873ffffffffffffffffffffffffffffffffffffffff1673ffffffffffffffffffffffffffffffffffffffff1681526020019081526020016000209050612dd18183613481565b506001600e60008860400151815260200190815260200160002060006101000a81548160ff021916908315150217905550866009600084815260200190815260200160002060006101000a81548173ffffffffffffffffffffffffffffffffffffffff021916908373ffffffffffffffffffffffffffffffffffffffff160217905550866008600084815260200190815260200160002060006101000a81548173ffffffffffffffffffffffffffffffffffffffff021916908373ffffffffffffffffffffffffffffffffffffffff160217905550600760009054906101000a900473ffffffffffffffffffffffffffffffffffffffff1673ffffffffffffffffffffffffffffffffffffffff1663eb55683a83876040518363ffffffff1660e01b8152600401612f0392919061578b565b600060405180830381600087803b158015612f1d57600080fd5b505af1158015612f31573d6000803e3d6000fd5b5050505050505050505050565b6000601160008381526020019081526020016000208054612f5e90615a3f565b80601f0160208091040260200160405190810160405280929190818152602001828054612f8a90615a3f565b8015612fd75780601f10612fac57610100808354040283529160200191612fd7565b820191906000526020600020905b815481529060010190602001808311612fba57829003601f168201915b50505050509050612fe78261349b565b60008151146130195780601160008481526020019081526020016000209080519060200190613017929190613a17565b505b6008600083815260200190815260200160002060006101000a81549073ffffffffffffffffffffffffffffffffffffffff02191690555050565b8161305d8161279a565b61309c576040517f08c379a0000000000000000000000000000000000000000000000000000000008152600401613093906156be565b60405180910390fd5b81600d600085815260200190815260200160002090805190602001906130c3929190613a17565b50505050565b6130d4848484612afa565b6130e0848484846135ac565b61311f576040517f08c379a00000000000000000000000000000000000000000000000000000000081526004016131169061533e565b60405180910390fd5b50505050565b8273ffffffffffffffffffffffffffffffffffffffff16613145826117ae565b73ffffffffffffffffffffffffffffffffffffffff161461319b576040517f08c379a0000000000000000000000000000000000000000000000000000000008152600401613192906155de565b60405180910390fd5b600073ffffffffffffffffffffffffffffffffffffffff168273ffffffffffffffffffffffffffffffffffffffff16141561320b576040517f08c379a0000000000000000000000000000000000000000000000000000000008152600401613202906153de565b60405180910390fd5b613216838383613743565b61322160008261280e565b6001600360008573ffffffffffffffffffffffffffffffffffffffff1673ffffffffffffffffffffffffffffffffffffffff1681526020019081526020016000206000828254613271919061593e565b925050819055506001600360008473ffffffffffffffffffffffffffffffffffffffff1673ffffffffffffffffffffffffffffffffffffffff16815260200190815260200160002060008282546132c891906158e8565b92505081905550816002600083815260200190815260200160002060006101000a81548173ffffffffffffffffffffffffffffffffffffffff021916908373ffffffffffffffffffffffffffffffffffffffff160217905550808273ffffffffffffffffffffffffffffffffffffffff168473ffffffffffffffffffffffffffffffffffffffff167fddf252ad1be2c89b69c2b068fc378daa952ba7f163c4a11628f55a4df523b3ef60405160405180910390a4505050565b61339b828260405180602001604052806000815250613748565b5050565b6001816000016000828254019250508190555050565b816133bf8161279a565b6133fe576040517f08c379a00000000000000000000000000000000000000000000000000000000081526004016133f5906156be565b60405180910390fd5b81600b600085815260200190815260200160002081905550505050565b816134258161279a565b613464576040517f08c379a000000000000000000000000000000000000000000000000000000000815260040161345b906156be565b60405180910390fd5b81600c600085815260200190815260200160002081905550505050565b6000613493836000018360001b6137a3565b905092915050565b60006134a6826117ae565b90506134b481600084613743565b6134bf60008361280e565b6001600360008373ffffffffffffffffffffffffffffffffffffffff1673ffffffffffffffffffffffffffffffffffffffff168152602001908152602001600020600082825461350f919061593e565b925050819055506002600083815260200190815260200160002060006101000a81549073ffffffffffffffffffffffffffffffffffffffff021916905581600073ffffffffffffffffffffffffffffffffffffffff168273ffffffffffffffffffffffffffffffffffffffff167fddf252ad1be2c89b69c2b068fc378daa952ba7f163c4a11628f55a4df523b3ef60405160405180910390a45050565b60006135cd8473ffffffffffffffffffffffffffffffffffffffff16613813565b15613736578373ffffffffffffffffffffffffffffffffffffffff1663150b7a026135f6612806565b8786866040518563ffffffff1660e01b815260040161361894939291906150fc565b602060405180830381600087803b15801561363257600080fd5b505af192505050801561366357506040513d601f19601f820116820180604052508101906136609190614186565b60015b6136e6573d8060008114613693576040519150601f19603f3d011682016040523d82523d6000602084013e613698565b606091505b506000815114156136de576040517f08c379a00000000000000000000000000000000000000000000000000000000081526004016136d59061533e565b60405180910390fd5b805181602001fd5b63150b7a0260e01b7bffffffffffffffffffffffffffffffffffffffffffffffffffffffff1916817bffffffffffffffffffffffffffffffffffffffffffffffffffffffff19161491505061373b565b600190505b949350505050565b505050565b6137528383613826565b61375f60008484846135ac565b61379e576040517f08c379a00000000000000000000000000000000000000000000000000000000081526004016137959061533e565b60405180910390fd5b505050565b60006137af83836139f4565b61380857826000018290806001815401808255809150506001900390600052602060002001600090919091909150558260000180549050836001016000848152602001908152602001600020819055506001905061380d565b600090505b92915050565b600080823b905060008111915050919050565b600073ffffffffffffffffffffffffffffffffffffffff168273ffffffffffffffffffffffffffffffffffffffff161415613896576040517f08c379a000000000000000000000000000000000000000000000000000000000815260040161388d9061553e565b60405180910390fd5b61389f8161279a565b156138df576040517f08c379a00000000000000000000000000000000000000000000000000000000081526004016138d69061537e565b60405180910390fd5b6138eb60008383613743565b6001600360008473ffffffffffffffffffffffffffffffffffffffff1673ffffffffffffffffffffffffffffffffffffffff168152602001908152602001600020600082825461393b91906158e8565b92505081905550816002600083815260200190815260200160002060006101000a81548173ffffffffffffffffffffffffffffffffffffffff021916908373ffffffffffffffffffffffffffffffffffffffff160217905550808273ffffffffffffffffffffffffffffffffffffffff16600073ffffffffffffffffffffffffffffffffffffffff167fddf252ad1be2c89b69c2b068fc378daa952ba7f163c4a11628f55a4df523b3ef60405160405180910390a45050565b600080836001016000848152602001908152602001600020541415905092915050565b828054613a2390615a3f565b90600052602060002090601f016020900481019282613a455760008555613a8c565b82601f10613a5e57805160ff1916838001178555613a8c565b82800160010185558215613a8c579182015b82811115613a8b578251825591602001919060010190613a70565b5b509050613a999190613a9d565b5090565b5b80821115613ab6576000816000905550600101613a9e565b5090565b6000613acd613ac884615845565b615814565b905082815260208101848484011115613ae557600080fd5b613af08482856159fd565b509392505050565b6000613b0b613b0684615875565b615814565b905082815260208101848484011115613b2357600080fd5b613b2e8482856159fd565b509392505050565b600081359050613b4581615b62565b92915050565b600081359050613b5a81615b79565b92915050565b600081359050613b6f81615b90565b92915050565b600081359050613b8481615ba7565b92915050565b600081519050613b9981615ba7565b92915050565b600082601f830112613bb057600080fd5b8135613bc0848260208601613aba565b91505092915050565b60008083601f840112613bdb57600080fd5b8235905067ffffffffffffffff811115613bf457600080fd5b602083019150836001820283011115613c0c57600080fd5b9250929050565b600082601f830112613c2457600080fd5b8135613c34848260208601613af8565b91505092915050565b600060408284031215613c4f57600080fd5b613c596040615814565b90506000613c6984828501613ec1565b6000830152506020613c7d84828501613b36565b60208301525092915050565b600060608284031215613c9b57600080fd5b613ca56060615814565b90506000613cb584828501613d71565b6000830152506020613cc984828501613d71565b6020830152506040613cdd84828501613d71565b60408301525092915050565b600060a08284031215613cfb57600080fd5b613d0560a0615814565b90506000613d1584828501613ec1565b6000830152506020613d2984828501613b36565b6020830152506040613d3d84828501613b36565b6040830152506060613d5184828501613b36565b6060830152506080613d6584828501613d71565b60808301525092915050565b600060208284031215613d8357600080fd5b613d8d6020615814565b90506000613d9d84828501613ec1565b60008301525092915050565b600060808284031215613dbb57600080fd5b613dc56080615814565b90506000613dd584828501613ec1565b6000830152506020613de984828501613ed6565b6020830152506040613dfd84828501613b60565b6040830152506060613e1184828501613b60565b60608301525092915050565b600060808284031215613e2f57600080fd5b613e396080615814565b9050600082013567ffffffffffffffff811115613e5557600080fd5b613e6184828501613c13565b600083015250602082013567ffffffffffffffff811115613e8157600080fd5b613e8d84828501613c13565b6020830152506040613ea184828501613b60565b6040830152506060613eb584828501613b60565b60608301525092915050565b600081359050613ed081615bbe565b92915050565b600081359050613ee581615bd5565b92915050565b600060208284031215613efd57600080fd5b6000613f0b84828501613b36565b91505092915050565b60008060408385031215613f2757600080fd5b6000613f3585828601613b36565b9250506020613f4685828601613b36565b9150509250929050565b600080600060608486031215613f6557600080fd5b6000613f7386828701613b36565b9350506020613f8486828701613b36565b9250506040613f9586828701613ec1565b9150509250925092565b60008060008060808587031215613fb557600080fd5b6000613fc387828801613b36565b9450506020613fd487828801613b36565b9350506040613fe587828801613ec1565b925050606085013567ffffffffffffffff81111561400257600080fd5b61400e87828801613b9f565b91505092959194509250565b6000806040838503121561402d57600080fd5b600061403b85828601613b36565b925050602061404c85828601613b4b565b9150509250929050565b600080600080610120858703121561406d57600080fd5b600061407b87828801613b36565b945050602085013567ffffffffffffffff81111561409857600080fd5b6140a487828801613e1d565b93505060406140b587828801613c89565b92505060a06140c687828801613da9565b91505092959194509250565b600080604083850312156140e557600080fd5b60006140f385828601613b36565b925050602061410485828601613ec1565b9150509250929050565b600080600060c0848603121561412357600080fd5b600061413186828701613b36565b935050602061414286828701613ec1565b925050604061415386828701613da9565b9150509250925092565b60006020828403121561416f57600080fd5b600061417d84828501613b75565b91505092915050565b60006020828403121561419857600080fd5b60006141a684828501613b8a565b91505092915050565b600080608083850312156141c257600080fd5b600083013567ffffffffffffffff8111156141dc57600080fd5b6141e885828601613e1d565b92505060206141f985828601613c89565b9150509250929050565b60006020828403121561421557600080fd5b600061422384828501613ec1565b91505092915050565b6000806040838503121561423f57600080fd5b600061424d85828601613ec1565b925050602061425e85828601613b36565b9150509250929050565b60008060006040848603121561427d57600080fd5b600061428b86828701613ec1565b935050602084013567ffffffffffffffff8111156142a857600080fd5b6142b486828701613bc9565b92509250509250925092565b600080606083850312156142d357600080fd5b60006142e185828601613ec1565b92505060206142f285828601613c3d565b9150509250929050565b60008060c0838503121561430f57600080fd5b600061431d85828601613ec1565b925050602061432e85828601613ce9565b9150509250929050565b61434181615972565b82525050565b61435081615972565b82525050565b61435f81615984565b82525050565b61436e81615990565b82525050565b61438561438082615990565b615aba565b82525050565b6000614396826158a5565b6143a081856158bb565b93506143b0818560208601615a0c565b6143b981615b51565b840191505092915050565b60006143d083856158cc565b93506143dd8385846159fd565b6143e683615b51565b840190509392505050565b60006143fc826158b0565b61440681856158cc565b9350614416818560208601615a0c565b61441f81615b51565b840191505092915050565b60006144376028836158cc565b91507f4d656469613a20746f6b656e2077697468207468617420696420646f6573206e60008301527f6f742065786973740000000000000000000000000000000000000000000000006020830152604082019050919050565b600061449d6032836158cc565b91507f4552433732313a207472616e7366657220746f206e6f6e20455243373231526560008301527f63656976657220696d706c656d656e74657200000000000000000000000000006020830152604082019050919050565b6000614503601c836158cc565b91507f4d656469613a207370656e6465722063616e6e6f7420626520307830000000006000830152602082019050919050565b6000614543601c836158cc565b91507f4552433732313a20746f6b656e20616c7265616479206d696e746564000000006000830152602082019050919050565b60006145836021836158cc565b91507f4d61726b65743a20426964646572206d757374206265206d73672073656e646560008301527f72000000000000000000000000000000000000000000000000000000000000006020830152604082019050919050565b60006145e96002836158dd565b91507f19010000000000000000000000000000000000000000000000000000000000006000830152600282019050919050565b60006146296022836158cc565b91507f4d656469613a2063616c6c6572206e6f7420617070726f76656420616464726560008301527f73730000000000000000000000000000000000000000000000000000000000006020830152604082019050919050565b600061468f6024836158cc565b91507f4552433732313a207472616e7366657220746f20746865207a65726f2061646460008301527f72657373000000000000000000000000000000000000000000000000000000006020830152604082019050919050565b60006146f56019836158cc565b91507f4552433732313a20617070726f766520746f2063616c6c6572000000000000006000830152602082019050919050565b6000614735602f836158cc565b91507f4d656469613a20746f6b656e20646f6573206e6f74206861766520686173682060008301527f6f6620697473206d6574616461746100000000000000000000000000000000006020830152604082019050919050565b600061479b6024836158cc565b91507f4d656469613a20636f6e74656e742068617368206d757374206265206e6f6e2d60008301527f7a65726f000000000000000000000000000000000000000000000000000000006020830152604082019050919050565b6000614801602c836158cc565b91507f4552433732313a206f70657261746f7220717565727920666f72206e6f6e657860008301527f697374656e7420746f6b656e00000000000000000000000000000000000000006020830152604082019050919050565b60006148676038836158cc565b91507f4552433732313a20617070726f76652063616c6c6572206973206e6f74206f7760008301527f6e6572206e6f7220617070726f76656420666f7220616c6c00000000000000006020830152604082019050919050565b60006148cd602a836158cc565b91507f4552433732313a2062616c616e636520717565727920666f7220746865207a6560008301527f726f2061646472657373000000000000000000000000000000000000000000006020830152604082019050919050565b60006149336029836158cc565b91507f4552433732313a206f776e657220717565727920666f72206e6f6e657869737460008301527f656e7420746f6b656e00000000000000000000000000000000000000000000006020830152604082019050919050565b60006149996015836158cc565b91507f4d656469613a205065726d6974206578706972656400000000000000000000006000830152602082019050919050565b60006149d9603e836158cc565b91507f4d656469613a206120746f6b656e2068617320616c7265616479206265656e2060008301527f637265617465642077697468207468697320636f6e74656e74206861736800006020830152604082019050919050565b6000614a3f601b836158cc565b91507f4d656469613a206f6e6c79206d61726b657420636f6e747261637400000000006000830152602082019050919050565b6000614a7f6020836158cc565b91507f4552433732313a206d696e7420746f20746865207a65726f20616464726573736000830152602082019050919050565b6000614abf6024836158cc565b91507f4d656469613a206f776e6572206973206e6f742063726561746f72206f66206d60008301527f65646961000000000000000000000000000000000000000000000000000000006020830152604082019050919050565b6000614b25602c836158cc565b91507f4552433732313a20617070726f76656420717565727920666f72206e6f6e657860008301527f697374656e7420746f6b656e00000000000000000000000000000000000000006020830152604082019050919050565b6000614b8b602c836158cc565b91507f4552433732314d657461646174613a2055524920736574206f66206e6f6e657860008301527f697374656e7420746f6b656e00000000000000000000000000000000000000006020830152604082019050919050565b6000614bf1601d836158cc565b91507f4d656469613a204f6e6c7920617070726f766564206f72206f776e65720000006000830152602082019050919050565b6000614c316029836158cc565b91507f4552433732313a207472616e73666572206f6620746f6b656e2074686174206960008301527f73206e6f74206f776e00000000000000000000000000000000000000000000006020830152604082019050919050565b6000614c976032836158cc565b91507f4d656469613a20746f6b656e20646f6573206e6f74206861766520686173682060008301527f6f66206372656174656420636f6e74656e7400000000000000000000000000006020830152604082019050919050565b6000614cfd6025836158cc565b91507f4d656469613a206d657461646174612068617368206d757374206265206e6f6e60008301527f2d7a65726f0000000000000000000000000000000000000000000000000000006020830152604082019050919050565b6000614d636021836158cc565b91507f4552433732313a20617070726f76616c20746f2063757272656e74206f776e6560008301527f72000000000000000000000000000000000000000000000000000000000000006020830152604082019050919050565b6000614dc9601a836158cc565b91507f4d656469613a206d696e745769746853696720657870697265640000000000006000830152602082019050919050565b6000614e096031836158cc565b91507f4552433732313a207472616e736665722063616c6c6572206973206e6f74206f60008301527f776e6572206e6f7220617070726f7665640000000000000000000000000000006020830152604082019050919050565b6000614e6f6018836158cc565b91507f4d656469613a205369676e617475726520696e76616c696400000000000000006000830152602082019050919050565b6000614eaf6018836158cc565b91507f4d656469613a206e6f6e6578697374656e7420746f6b656e00000000000000006000830152602082019050919050565b6000614eef601f836158cc565b91507f5265656e7472616e637947756172643a207265656e7472616e742063616c6c006000830152602082019050919050565b6000614f2f6026836158cc565b91507f4d656469613a2073706563696669656420757269206d757374206265206e6f6e60008301527f2d656d70747900000000000000000000000000000000000000000000000000006020830152604082019050919050565b604082016000820151614f9e600085018261507d565b506020820151614fb16020850182614338565b50505050565b606082016000820151614fcd6000850182615061565b506020820151614fe06020850182615061565b506040820151614ff36040850182615061565b50505050565b60a08201600082015161500f600085018261507d565b5060208201516150226020850182614338565b5060408201516150356040850182614338565b5060608201516150486060850182614338565b50608082015161505b6080850182615061565b50505050565b602082016000820151615077600085018261507d565b50505050565b615086816159e6565b82525050565b615095816159e6565b82525050565b6150a4816159f0565b82525050565b60006150b5826145dc565b91506150c18285614374565b6020820191506150d18284614374565b6020820191508190509392505050565b60006020820190506150f66000830184614347565b92915050565b60006080820190506151116000830187614347565b61511e6020830186614347565b61512b604083018561508c565b818103606083015261513d818461438b565b905095945050505050565b600060408201905061515d6000830186614347565b81810360208301526151708184866143c4565b9050949350505050565b600060208201905061518f6000830184614356565b92915050565b60006020820190506151aa6000830184614365565b92915050565b600060a0820190506151c56000830188614365565b6151d26020830187614347565b6151df604083018661508c565b6151ec606083018561508c565b6151f9608083018461508c565b9695505050505050565b600060a0820190506152186000830188614365565b6152256020830187614365565b6152326040830186614365565b61523f606083018561508c565b61524c6080830184614347565b9695505050505050565b600060c08201905061526b6000830189614365565b6152786020830188614365565b6152856040830187614365565b615292606083018661508c565b61529f608083018561508c565b6152ac60a083018461508c565b979650505050505050565b60006080820190506152cc6000830187614365565b6152d9602083018661509b565b6152e66040830185614365565b6152f36060830184614365565b95945050505050565b6000602082019050818103600083015261531681846143f1565b905092915050565b600060208201905081810360008301526153378161442a565b9050919050565b6000602082019050818103600083015261535781614490565b9050919050565b60006020820190508181036000830152615377816144f6565b9050919050565b6000602082019050818103600083015261539781614536565b9050919050565b600060208201905081810360008301526153b781614576565b9050919050565b600060208201905081810360008301526153d78161461c565b9050919050565b600060208201905081810360008301526153f781614682565b9050919050565b60006020820190508181036000830152615417816146e8565b9050919050565b6000602082019050818103600083015261543781614728565b9050919050565b600060208201905081810360008301526154578161478e565b9050919050565b60006020820190508181036000830152615477816147f4565b9050919050565b600060208201905081810360008301526154978161485a565b9050919050565b600060208201905081810360008301526154b7816148c0565b9050919050565b600060208201905081810360008301526154d781614926565b9050919050565b600060208201905081810360008301526154f78161498c565b9050919050565b60006020820190508181036000830152615517816149cc565b9050919050565b6000602082019050818103600083015261553781614a32565b9050919050565b6000602082019050818103600083015261555781614a72565b9050919050565b6000602082019050818103600083015261557781614ab2565b9050919050565b6000602082019050818103600083015261559781614b18565b9050919050565b600060208201905081810360008301526155b781614b7e565b9050919050565b600060208201905081810360008301526155d781614be4565b9050919050565b600060208201905081810360008301526155f781614c24565b9050919050565b6000602082019050818103600083015261561781614c8a565b9050919050565b6000602082019050818103600083015261563781614cf0565b9050919050565b6000602082019050818103600083015261565781614d56565b9050919050565b6000602082019050818103600083015261567781614dbc565b9050919050565b6000602082019050818103600083015261569781614dfc565b9050919050565b600060208201905081810360008301526156b781614e62565b9050919050565b600060208201905081810360008301526156d781614ea2565b9050919050565b600060208201905081810360008301526156f781614ee2565b9050919050565b6000602082019050818103600083015261571781614f22565b9050919050565b6000602082019050615733600083018461508c565b92915050565b600060408201905061574e600083018561508c565b61575b6020830184614347565b9392505050565b6000606082019050615777600083018561508c565b6157846020830184614f88565b9392505050565b60006080820190506157a0600083018561508c565b6157ad6020830184614fb7565b9392505050565b600060c0820190506157c9600083018561508c565b6157d66020830184614ff9565b9392505050565b600060e0820190506157f2600083018661508c565b6157ff6020830185614ff9565b61580c60c0830184614347565b949350505050565b6000604051905081810181811067ffffffffffffffff8211171561583b5761583a615b22565b5b8060405250919050565b600067ffffffffffffffff8211156158605761585f615b22565b5b601f19601f8301169050602081019050919050565b600067ffffffffffffffff8211156158905761588f615b22565b5b601f19601f8301169050602081019050919050565b600081519050919050565b600081519050919050565b600082825260208201905092915050565b600082825260208201905092915050565b600081905092915050565b60006158f3826159e6565b91506158fe836159e6565b9250827fffffffffffffffffffffffffffffffffffffffffffffffffffffffffffffffff0382111561593357615932615ac4565b5b828201905092915050565b6000615949826159e6565b9150615954836159e6565b92508282101561596757615966615ac4565b5b828203905092915050565b600061597d826159c6565b9050919050565b60008115159050919050565b6000819050919050565b60007fffffffff0000000000000000000000000000000000000000000000000000000082169050919050565b600073ffffffffffffffffffffffffffffffffffffffff82169050919050565b6000819050919050565b600060ff82169050919050565b82818337600083830152505050565b60005b83811015615a2a578082015181840152602081019050615a0f565b83811115615a39576000848401525b50505050565b60006002820490506001821680615a5757607f821691505b60208210811415615a6b57615a6a615af3565b5b50919050565b6000615a7c826159e6565b91507fffffffffffffffffffffffffffffffffffffffffffffffffffffffffffffffff821415615aaf57615aae615ac4565b5b600182019050919050565b6000819050919050565b7f4e487b7100000000000000000000000000000000000000000000000000000000600052601160045260246000fd5b7f4e487b7100000000000000000000000000000000000000000000000000000000600052602260045260246000fd5b7f4e487b7100000000000000000000000000000000000000000000000000000000600052604160045260246000fd5b6000601f19601f8301169050919050565b615b6b81615972565b8114615b7657600080fd5b50565b615b8281615984565b8114615b8d57600080fd5b50565b615b9981615990565b8114615ba457600080fd5b50565b615bb08161599a565b8114615bbb57600080fd5b50565b615bc7816159e6565b8114615bd257600080fd5b50565b615bde816159f0565b8114615be957600080fd5b5056fea2646970667358221220fddb5af6cec0bd4fa46bb554ef3b86e068b448165d23d45ab41424b9e91bb3d864736f6c63430008000033",
  "immutableReferences": {},
  "source": "// SPDX-License-Identifier: GPL-3.0\r\npragma solidity >=0.4.22 <0.9.0;\r\npragma experimental ABIEncoderV2;\r\n\r\nimport {ERC721Burnable} from \"@openzeppelin/contracts/token/ERC721/extensions/ERC721Burnable.sol\";\r\nimport {ERC721} from \"@openzeppelin/contracts/token/ERC721/ERC721.sol\";\r\nimport {EnumerableSet} from \"@openzeppelin/contracts/utils/structs/EnumerableSet.sol\";\r\nimport {Counters} from \"@openzeppelin/contracts/utils/Counters.sol\";\r\nimport {SafeMath} from \"@openzeppelin/contracts/utils/math/SafeMath.sol\";\r\nimport {Math} from \"@openzeppelin/contracts/utils/math/Math.sol\";\r\nimport {IERC20} from \"@openzeppelin/contracts/token/ERC20/IERC20.sol\";\r\nimport {\r\n    ReentrancyGuard\r\n} from \"@openzeppelin/contracts/security/ReentrancyGuard.sol\";\r\nimport {Decimal} from \"./Decimal.sol\";\r\nimport {IMarket} from \"./interfaces/IMarket.sol\";\r\nimport \"./interfaces/IMedia.sol\";\r\n\r\n/**\r\n * @title A media value system, with perpetual equity to creators\r\n * @notice This contract provides an interface to mint media with a market\r\n * owned by the creator.\r\n */\r\ncontract Media is IMedia, ERC721Burnable, ReentrancyGuard {\r\n    using Counters for Counters.Counter;\r\n    using SafeMath for uint256;\r\n\r\n    /* *******\r\n     * Globals\r\n     * *******\r\n     */\r\n\r\n    // Address for the market\r\n    address public marketContract;\r\n\r\n    // Mapping from token to previous owner of the token\r\n    mapping(uint256 => address) public previousTokenOwners;\r\n\r\n    // Mapping from token id to creator address\r\n    mapping(uint256 => address) public tokenCreators;\r\n\r\n    // Mapping from creator address to their (enumerable) set of created tokens\r\n    mapping(address => EnumerableSet.UintSet) private _creatorTokens;\r\n\r\n    // Mapping from token id to sha256 hash of content\r\n    mapping(uint256 => bytes32) public tokenContentHashes;\r\n\r\n    // Mapping from token id to sha256 hash of metadata\r\n    mapping(uint256 => bytes32) public tokenMetadataHashes;\r\n\r\n    // Mapping from token id to metadataURI\r\n    mapping(uint256 => string) private _tokenMetadataURIs;\r\n\r\n    // Mapping from contentHash to bool\r\n    mapping(bytes32 => bool) private _contentHashes;\r\n\r\n    //keccak256(\"Permit(address spender,uint256 tokenId,uint256 nonce,uint256 deadline)\");\r\n    bytes32 public constant PERMIT_TYPEHASH =\r\n        0x49ecf333e5b8c95c40fdafc95c1ad136e8914a8fb55e9dc8bb01eaa83a2df9ad;\r\n\r\n    //keccak256(\"MintWithSig(bytes32 contentHash,bytes32 metadataHash,uint256 creatorShare,uint256 nonce,uint256 deadline)\");\r\n    bytes32 public constant MINT_WITH_SIG_TYPEHASH =\r\n        0x2952e482b8e2b192305f87374d7af45dc2eafafe4f50d26a0c02e90f2fdbe14b;\r\n\r\n    // Mapping from address to token id to permit nonce\r\n    mapping(address => mapping(uint256 => uint256)) public permitNonces;\r\n\r\n    // Mapping from address to mint with sig nonce\r\n    mapping(address => uint256) public mintWithSigNonces;\r\n\r\n    // Optional mapping for token URIs\r\n        mapping (uint256 => string) private _tokenURIs;\r\n\r\n    /*\r\n     *     bytes4(keccak256('name()')) == 0x06fdde03\r\n     *     bytes4(keccak256('symbol()')) == 0x95d89b41\r\n     *     bytes4(keccak256('tokenURI(uint256)')) == 0xc87b56dd\r\n     *     bytes4(keccak256('tokenMetadataURI(uint256)')) == 0x157c3df9\r\n     *\r\n     *     => 0x06fdde03 ^ 0x95d89b41 ^ 0xc87b56dd ^ 0x157c3df9 == 0x4e222e66\r\n     */\r\n    bytes4 private constant _INTERFACE_ID_ERC721_METADATA = 0x4e222e66;\r\n\r\n    Counters.Counter private _tokenIdTracker;\r\n\r\n    /* *********\r\n     * Modifiers\r\n     * *********\r\n     */\r\n\r\n    /**\r\n     * @notice Require that the token has not been burned and has been minted\r\n     */\r\n    modifier onlyExistingToken(uint256 tokenId) {\r\n        require(_exists(tokenId), \"Media: nonexistent token\");\r\n        _;\r\n    }\r\n\r\n    /**\r\n     * @notice Require that the token has had a content hash set\r\n     */\r\n    modifier onlyTokenWithContentHash(uint256 tokenId) {\r\n        require(\r\n            tokenContentHashes[tokenId] != 0,\r\n            \"Media: token does not have hash of created content\"\r\n        );\r\n        _;\r\n    }\r\n\r\n    /**\r\n     * @notice Require that the token has had a metadata hash set\r\n     */\r\n    modifier onlyTokenWithMetadataHash(uint256 tokenId) {\r\n        require(\r\n            tokenMetadataHashes[tokenId] != 0,\r\n            \"Media: token does not have hash of its metadata\"\r\n        );\r\n        _;\r\n    }\r\n\r\n    /**\r\n     * @notice Ensure that the provided spender is the approved or the owner of\r\n     * the media for the specified tokenId\r\n     */\r\n    modifier onlyApprovedOrOwner(address spender, uint256 tokenId) {\r\n        require(\r\n            _isApprovedOrOwner(spender, tokenId),\r\n            \"Media: Only approved or owner\"\r\n        );\r\n        _;\r\n    }\r\n\r\n    /**\r\n     * @notice Ensure the token has been created (even if it has been burned)\r\n     */\r\n    modifier onlyTokenCreated(uint256 tokenId) {\r\n        require(\r\n            _tokenIdTracker.current() > tokenId,\r\n            \"Media: token with that id does not exist\"\r\n        );\r\n        _;\r\n    }\r\n\r\n    /**\r\n     * @notice Ensure that the provided URI is not empty\r\n     */\r\n    modifier onlyValidURI(string memory uri) {\r\n        require(\r\n            bytes(uri).length != 0,\r\n            \"Media: specified uri must be non-empty\"\r\n        );\r\n        _;\r\n    }\r\n\r\n    /**\r\n     * @notice On deployment, set the market contract address and register the\r\n     * ERC721 metadata interface\r\n     */\r\n    constructor(address marketContractAddr) public ERC721(\"Zora\", \"ZORA\") {\r\n        marketContract = marketContractAddr;\r\n       // _registerInterface(_INTERFACE_ID_ERC721_METADATA);\r\n    }\r\n\r\n    /* **************\r\n     * View Functions\r\n     * **************\r\n     */\r\n\r\n    /*\r\n     * @notice return the URI for a particular piece of media with the specified tokenId\r\n     * @dev This function is an override of the base OZ implementation because we\r\n     * will return the tokenURI even if the media has been burned. In addition, this\r\n     * protocol does not support a base URI, so relevant conditionals are removed.\r\n     * @return the URI for a token\r\n     */\r\n   \r\n    function _setTokenURI(uint256 tokenId, string memory _tokenURI) internal virtual {\r\n            require(_exists(tokenId), \"ERC721Metadata: URI set of nonexistent token\");\r\n            _tokenURIs[tokenId] = _tokenURI;\r\n        }\r\n   \r\n    function tokenURI(uint256 tokenId)\r\n        public\r\n        view\r\n        override\r\n        onlyTokenCreated(tokenId)\r\n        returns (string memory)\r\n    {\r\n        string memory _tokenURI = _tokenURIs[tokenId];\r\n\r\n        return _tokenURI;\r\n    }\r\n\r\n    /**\r\n     * @notice Return the metadata URI for a piece of media given the token URI\r\n     * @return the metadata URI for the token\r\n     */\r\n    function tokenMetadataURI(uint256 tokenId)\r\n        external\r\n        view\r\n        override\r\n        onlyTokenCreated(tokenId)\r\n        returns (string memory)\r\n    {\r\n        return _tokenMetadataURIs[tokenId];\r\n    }\r\n\r\n    /* ****************\r\n     * Public Functions\r\n     * ****************\r\n     */\r\n\r\n    /**\r\n     * @notice see IMedia\r\n     */\r\n    function mint(MediaData memory data, IMarket.BidShares memory bidShares)\r\n        public\r\n        override\r\n        nonReentrant\r\n    {\r\n        _mintForCreator(msg.sender, data, bidShares);\r\n    }\r\n\r\n    /**\r\n     * @notice see IMedia\r\n     */\r\n    function mintWithSig(\r\n        address creator,\r\n        MediaData memory data,\r\n        IMarket.BidShares memory bidShares,\r\n        EIP712Signature memory sig\r\n    ) public override nonReentrant {\r\n        require(\r\n            sig.deadline == 0 || sig.deadline >= block.timestamp,\r\n            \"Media: mintWithSig expired\"\r\n        );\r\n\r\n        bytes32 domainSeparator = _calculateDomainSeparator();\r\n\r\n        bytes32 digest =\r\n            keccak256(\r\n                abi.encodePacked(\r\n                    \"\\x19\\x01\",\r\n                    domainSeparator,\r\n                    keccak256(\r\n                        abi.encode(\r\n                            MINT_WITH_SIG_TYPEHASH,\r\n                            data.contentHash,\r\n                            data.metadataHash,\r\n                            bidShares.creator.value,\r\n                            mintWithSigNonces[creator]++,\r\n                            sig.deadline\r\n                        )\r\n                    )\r\n                )\r\n            );\r\n\r\n        address recoveredAddress = ecrecover(digest, sig.v, sig.r, sig.s);\r\n\r\n        require(\r\n            recoveredAddress != address(0) && creator == recoveredAddress,\r\n            \"Media: Signature invalid\"\r\n        );\r\n\r\n        _mintForCreator(recoveredAddress, data, bidShares);\r\n    }\r\n\r\n    /**\r\n     * @notice see IMedia\r\n     */\r\n    function auctionTransfer(uint256 tokenId, address recipient)\r\n        external\r\n        override\r\n    {\r\n        require(msg.sender == marketContract, \"Media: only market contract\");\r\n        previousTokenOwners[tokenId] = ownerOf(tokenId);\r\n        _safeTransfer(ownerOf(tokenId), recipient, tokenId, \"\");\r\n    }\r\n\r\n    /**\r\n     * @notice see IMedia\r\n     */\r\n    function setAsk(uint256 tokenId, IMarket.Ask memory ask)\r\n        public\r\n        override\r\n        nonReentrant\r\n        onlyApprovedOrOwner(msg.sender, tokenId)\r\n    {\r\n        IMarket(marketContract).setAsk(tokenId, ask);\r\n    }\r\n\r\n    /**\r\n     * @notice see IMedia\r\n     */\r\n    function removeAsk(uint256 tokenId)\r\n        external\r\n        override\r\n        nonReentrant\r\n        onlyApprovedOrOwner(msg.sender, tokenId)\r\n    {\r\n        IMarket(marketContract).removeAsk(tokenId);\r\n    }\r\n\r\n    /**\r\n     * @notice see IMedia\r\n     */\r\n    function setBid(uint256 tokenId, IMarket.Bid memory bid)\r\n        public\r\n        override\r\n        nonReentrant\r\n        onlyExistingToken(tokenId)\r\n    {\r\n        require(msg.sender == bid.bidder, \"Market: Bidder must be msg sender\");\r\n        IMarket(marketContract).setBid(tokenId, bid, msg.sender);\r\n    }\r\n\r\n    /**\r\n     * @notice see IMedia\r\n     */\r\n    function removeBid(uint256 tokenId)\r\n        external\r\n        override\r\n        nonReentrant\r\n        onlyTokenCreated(tokenId)\r\n    {\r\n        IMarket(marketContract).removeBid(tokenId, msg.sender);\r\n    }\r\n\r\n    /**\r\n     * @notice see IMedia\r\n     */\r\n    function acceptBid(uint256 tokenId, IMarket.Bid memory bid)\r\n        public\r\n        override\r\n        nonReentrant\r\n        onlyApprovedOrOwner(msg.sender, tokenId)\r\n    {\r\n        IMarket(marketContract).acceptBid(tokenId, bid);\r\n    }\r\n\r\n    /**\r\n     * @notice Burn a token.\r\n     * @dev Only callable if the media owner is also the creator.\r\n     */\r\n    function burn(uint256 tokenId)\r\n        public\r\n        override\r\n        nonReentrant\r\n        onlyExistingToken(tokenId)\r\n        onlyApprovedOrOwner(msg.sender, tokenId)\r\n    {\r\n        address owner = ownerOf(tokenId);\r\n\r\n        require(\r\n            tokenCreators[tokenId] == owner,\r\n            \"Media: owner is not creator of media\"\r\n        );\r\n\r\n        _burn(tokenId);\r\n    }\r\n\r\n    /**\r\n     * @notice Revoke the approvals for a token. The provided `approve` function is not sufficient\r\n     * for this protocol, as it does not allow an approved address to revoke it's own approval.\r\n     * In instances where a 3rd party is interacting on a user's behalf via `permit`, they should\r\n     * revoke their approval once their task is complete as a best practice.\r\n     */\r\n    function revokeApproval(uint256 tokenId) external override nonReentrant {\r\n        require(\r\n            msg.sender == getApproved(tokenId),\r\n            \"Media: caller not approved address\"\r\n        );\r\n        _approve(address(0), tokenId);\r\n    }\r\n\r\n    /**\r\n     * @notice see IMedia\r\n     * @dev only callable by approved or owner\r\n     */\r\n    function updateTokenURI(uint256 tokenId, string calldata tokenURI)\r\n        external\r\n        override\r\n        nonReentrant\r\n        onlyApprovedOrOwner(msg.sender, tokenId)\r\n        onlyTokenWithContentHash(tokenId)\r\n        onlyValidURI(tokenURI)\r\n    {\r\n        _setTokenURI(tokenId, tokenURI);\r\n        emit TokenURIUpdated(tokenId, msg.sender, tokenURI);\r\n    }\r\n\r\n    /**\r\n     * @notice see IMedia\r\n     * @dev only callable by approved or owner\r\n     */\r\n    function updateTokenMetadataURI(\r\n        uint256 tokenId,\r\n        string calldata metadataURI\r\n    )\r\n        external\r\n        override\r\n        nonReentrant\r\n        onlyApprovedOrOwner(msg.sender, tokenId)\r\n        onlyTokenWithMetadataHash(tokenId)\r\n        onlyValidURI(metadataURI)\r\n    {\r\n        _setTokenMetadataURI(tokenId, metadataURI);\r\n        emit TokenMetadataURIUpdated(tokenId, msg.sender, metadataURI);\r\n    }\r\n\r\n    /**\r\n     * @notice See IMedia\r\n     * @dev This method is loosely based on the permit for ERC-20 tokens in  EIP-2612, but modified\r\n     * for ERC-721.\r\n     */\r\n    function permit(\r\n        address spender,\r\n        uint256 tokenId,\r\n        EIP712Signature memory sig\r\n    ) public override nonReentrant onlyExistingToken(tokenId) {\r\n        require(\r\n            sig.deadline == 0 || sig.deadline >= block.timestamp,\r\n            \"Media: Permit expired\"\r\n        );\r\n        require(spender != address(0), \"Media: spender cannot be 0x0\");\r\n        bytes32 domainSeparator = _calculateDomainSeparator();\r\n\r\n        bytes32 digest =\r\n            keccak256(\r\n                abi.encodePacked(\r\n                    \"\\x19\\x01\",\r\n                    domainSeparator,\r\n                    keccak256(\r\n                        abi.encode(\r\n                            PERMIT_TYPEHASH,\r\n                            spender,\r\n                            tokenId,\r\n                            permitNonces[ownerOf(tokenId)][tokenId]++,\r\n                            sig.deadline\r\n                        )\r\n                    )\r\n                )\r\n            );\r\n\r\n        address recoveredAddress = ecrecover(digest, sig.v, sig.r, sig.s);\r\n\r\n        require(\r\n            recoveredAddress != address(0) &&\r\n                ownerOf(tokenId) == recoveredAddress,\r\n            \"Media: Signature invalid\"\r\n        );\r\n\r\n        _approve(spender, tokenId);\r\n    }\r\n\r\n    /* *****************\r\n     * Private Functions\r\n     * *****************\r\n     */\r\n\r\n    /**\r\n     * @notice Creates a new token for `creator`. Its token ID will be automatically\r\n     * assigned (and available on the emitted {IERC721-Transfer} event), and the token\r\n     * URI autogenerated based on the base URI passed at construction.\r\n     *\r\n     * See {ERC721-_safeMint}.\r\n     *\r\n     * On mint, also set the sha256 hashes of the content and its metadata for integrity\r\n     * checks, along with the initial URIs to point to the content and metadata. Attribute\r\n     * the token ID to the creator, mark the content hash as used, and set the bid shares for\r\n     * the media's market.\r\n     *\r\n     * Note that although the content hash must be unique for future mints to prevent duplicate media,\r\n     * metadata has no such requirement.\r\n     */\r\n    function _mintForCreator(\r\n        address creator,\r\n        MediaData memory data,\r\n        IMarket.BidShares memory bidShares\r\n    ) internal onlyValidURI(data.tokenURI) onlyValidURI(data.metadataURI) {\r\n        require(data.contentHash != 0, \"Media: content hash must be non-zero\");\r\n        require(\r\n            _contentHashes[data.contentHash] == false,\r\n            \"Media: a token has already been created with this content hash\"\r\n        );\r\n        require(\r\n            data.metadataHash != 0,\r\n            \"Media: metadata hash must be non-zero\"\r\n        );\r\n\r\n        uint256 tokenId = _tokenIdTracker.current();\r\n\r\n        _safeMint(creator, tokenId);\r\n        _tokenIdTracker.increment();\r\n        _setTokenContentHash(tokenId, data.contentHash);\r\n        _setTokenMetadataHash(tokenId, data.metadataHash);\r\n        _setTokenMetadataURI(tokenId, data.metadataURI);\r\n        _setTokenURI(tokenId, data.tokenURI);\r\n        EnumerableSet.UintSet storage set1 = _creatorTokens[creator];\r\n        EnumerableSet.add(set1,tokenId);\r\n        _contentHashes[data.contentHash] = true;\r\n        tokenCreators[tokenId] = creator;\r\n        previousTokenOwners[tokenId] = creator;\r\n        IMarket(marketContract).setBidShares(tokenId, bidShares);\r\n    }\r\n\r\n    function _setTokenContentHash(uint256 tokenId, bytes32 contentHash)\r\n        internal\r\n        virtual\r\n        onlyExistingToken(tokenId)\r\n    {\r\n        tokenContentHashes[tokenId] = contentHash;\r\n    }\r\n\r\n    function _setTokenMetadataHash(uint256 tokenId, bytes32 metadataHash)\r\n        internal\r\n        virtual\r\n        onlyExistingToken(tokenId)\r\n    {\r\n        tokenMetadataHashes[tokenId] = metadataHash;\r\n    }\r\n\r\n    function _setTokenMetadataURI(uint256 tokenId, string memory metadataURI)\r\n        internal\r\n        virtual\r\n        onlyExistingToken(tokenId)\r\n    {\r\n        _tokenMetadataURIs[tokenId] = metadataURI;\r\n    }\r\n\r\n    /**\r\n     * @notice Destroys `tokenId`.\r\n     * @dev We modify the OZ _burn implementation to\r\n     * maintain metadata and to remove the\r\n     * previous token owner from the piece\r\n     */\r\n    function _burn(uint256 tokenId) internal override {\r\n        string memory tokenURI = _tokenURIs[tokenId];\r\n\r\n        super._burn(tokenId);\r\n\r\n        if (bytes(tokenURI).length != 0) {\r\n            _tokenURIs[tokenId] = tokenURI;\r\n        }\r\n\r\n        delete previousTokenOwners[tokenId];\r\n    }\r\n\r\n    /**\r\n     * @notice transfer a token and remove the ask for it.\r\n     */\r\n    function _transfer(\r\n        address from,\r\n        address to,\r\n        uint256 tokenId\r\n    ) internal override {\r\n        IMarket(marketContract).removeAsk(tokenId);\r\n\r\n        super._transfer(from, to, tokenId);\r\n    }\r\n\r\n    /**\r\n     * @dev Calculates EIP712 DOMAIN_SEPARATOR based on the current contract and chain ID.\r\n     */\r\n    function _calculateDomainSeparator() internal view returns (bytes32) {\r\n        uint256 chainID;\r\n        /* solium-disable-next-line */\r\n        assembly {\r\n            chainID := chainid()\r\n        }\r\n\r\n        return\r\n            keccak256(\r\n                abi.encode(\r\n                    keccak256(\r\n                        \"EIP712Domain(string name,string version,uint256 chainId,address verifyingContract)\"\r\n                    ),\r\n                    keccak256(bytes(\"Zora\")),\r\n                    keccak256(bytes(\"1\")),\r\n                    chainID,\r\n                    address(this)\r\n                )\r\n            );\r\n    }\r\n}",
  "sourcePath": "C:/Users/Rahul/Zora_Os/contracts/Media.sol",
  "compiler": {
    "name": "solc",
    "version": "0.8.0+commit.c7dfd78e.Emscripten.clang"
  },
  "schemaVersion": "3.4.0",
  "updatedAt": "2021-05-05T09:40:08.733Z",
  "networkType": "ethereum",
  "devdoc": {
    "kind": "dev",
    "methods": {
      "approve(address,uint256)": {
        "details": "See {IERC721-approve}."
      },
      "balanceOf(address)": {
        "details": "See {IERC721-balanceOf}."
      },
      "burn(uint256)": {
        "details": "Only callable if the media owner is also the creator."
      },
      "getApproved(uint256)": {
        "details": "See {IERC721-getApproved}."
      },
      "isApprovedForAll(address,address)": {
        "details": "See {IERC721-isApprovedForAll}."
      },
      "name()": {
        "details": "See {IERC721Metadata-name}."
      },
      "ownerOf(uint256)": {
        "details": "See {IERC721-ownerOf}."
      },
      "permit(address,uint256,(uint256,uint8,bytes32,bytes32))": {
        "details": "This method is loosely based on the permit for ERC-20 tokens in  EIP-2612, but modified for ERC-721."
      },
      "safeTransferFrom(address,address,uint256)": {
        "details": "See {IERC721-safeTransferFrom}."
      },
      "safeTransferFrom(address,address,uint256,bytes)": {
        "details": "See {IERC721-safeTransferFrom}."
      },
      "setApprovalForAll(address,bool)": {
        "details": "See {IERC721-setApprovalForAll}."
      },
      "supportsInterface(bytes4)": {
        "details": "See {IERC165-supportsInterface}."
      },
      "symbol()": {
        "details": "See {IERC721Metadata-symbol}."
      },
      "tokenMetadataURI(uint256)": {
        "returns": {
          "_0": "the metadata URI for the token"
        }
      },
      "tokenURI(uint256)": {
        "details": "See {IERC721Metadata-tokenURI}."
      },
      "transferFrom(address,address,uint256)": {
        "details": "See {IERC721-transferFrom}."
      },
      "updateTokenMetadataURI(uint256,string)": {
        "details": "only callable by approved or owner"
      },
      "updateTokenURI(uint256,string)": {
        "details": "only callable by approved or owner"
      }
    },
    "title": "A media value system, with perpetual equity to creators",
    "version": 1
  },
  "userdoc": {
    "kind": "user",
    "methods": {
      "acceptBid(uint256,(uint256,address,address,address,(uint256)))": {
        "notice": "see IMedia"
      },
      "auctionTransfer(uint256,address)": {
        "notice": "see IMedia"
      },
      "burn(uint256)": {
        "notice": "Burn a token."
      },
      "constructor": {
        "notice": "On deployment, set the market contract address and register the ERC721 metadata interface"
      },
      "mint((string,string,bytes32,bytes32),((uint256),(uint256),(uint256)))": {
        "notice": "see IMedia"
      },
      "mintWithSig(address,(string,string,bytes32,bytes32),((uint256),(uint256),(uint256)),(uint256,uint8,bytes32,bytes32))": {
        "notice": "see IMedia"
      },
      "permit(address,uint256,(uint256,uint8,bytes32,bytes32))": {
        "notice": "See IMedia"
      },
      "removeAsk(uint256)": {
        "notice": "see IMedia"
      },
      "removeBid(uint256)": {
        "notice": "see IMedia"
      },
      "revokeApproval(uint256)": {
        "notice": "Revoke the approvals for a token. The provided `approve` function is not sufficient for this protocol, as it does not allow an approved address to revoke it's own approval. In instances where a 3rd party is interacting on a user's behalf via `permit`, they should revoke their approval once their task is complete as a best practice."
      },
      "setAsk(uint256,(uint256,address))": {
        "notice": "see IMedia"
      },
      "setBid(uint256,(uint256,address,address,address,(uint256)))": {
        "notice": "see IMedia"
      },
      "tokenMetadataURI(uint256)": {
        "notice": "Return the metadata URI for a piece of media given the token URI"
      },
      "updateTokenMetadataURI(uint256,string)": {
        "notice": "see IMedia"
      },
      "updateTokenURI(uint256,string)": {
        "notice": "see IMedia"
      }
    },
    "notice": "This contract provides an interface to mint media with a market owned by the creator.",
    "version": 1
  }
}