{
  "contractName": "Market",
  "abi": [
    {
      "inputs": [],
      "stateMutability": "nonpayable",
      "type": "constructor"
    },
    {
      "anonymous": false,
      "inputs": [
        {
          "indexed": true,
          "internalType": "uint256",
          "name": "tokenId",
          "type": "uint256"
        },
        {
          "components": [
            {
              "internalType": "uint256",
              "name": "amount",
              "type": "uint256"
            },
            {
              "internalType": "address",
              "name": "currency",
              "type": "address"
            }
          ],
          "indexed": false,
          "internalType": "struct IMarket.Ask",
          "name": "ask",
          "type": "tuple"
        }
      ],
      "name": "AskCreated",
      "type": "event"
    },
    {
      "anonymous": false,
      "inputs": [
        {
          "indexed": true,
          "internalType": "uint256",
          "name": "tokenId",
          "type": "uint256"
        },
        {
          "components": [
            {
              "internalType": "uint256",
              "name": "amount",
              "type": "uint256"
            },
            {
              "internalType": "address",
              "name": "currency",
              "type": "address"
            }
          ],
          "indexed": false,
          "internalType": "struct IMarket.Ask",
          "name": "ask",
          "type": "tuple"
        }
      ],
      "name": "AskRemoved",
      "type": "event"
    },
    {
      "anonymous": false,
      "inputs": [
        {
          "indexed": true,
          "internalType": "uint256",
          "name": "tokenId",
          "type": "uint256"
        },
        {
          "components": [
            {
              "internalType": "uint256",
              "name": "amount",
              "type": "uint256"
            },
            {
              "internalType": "address",
              "name": "currency",
              "type": "address"
            },
            {
              "internalType": "address",
              "name": "bidder",
              "type": "address"
            },
            {
              "internalType": "address",
              "name": "recipient",
              "type": "address"
            },
            {
              "components": [
                {
                  "internalType": "uint256",
                  "name": "value",
                  "type": "uint256"
                }
              ],
              "internalType": "struct Decimal.D256",
              "name": "sellOnShare",
              "type": "tuple"
            }
          ],
          "indexed": false,
          "internalType": "struct IMarket.Bid",
          "name": "bid",
          "type": "tuple"
        }
      ],
      "name": "BidCreated",
      "type": "event"
    },
    {
      "anonymous": false,
      "inputs": [
        {
          "indexed": true,
          "internalType": "uint256",
          "name": "tokenId",
          "type": "uint256"
        },
        {
          "components": [
            {
              "internalType": "uint256",
              "name": "amount",
              "type": "uint256"
            },
            {
              "internalType": "address",
              "name": "currency",
              "type": "address"
            },
            {
              "internalType": "address",
              "name": "bidder",
              "type": "address"
            },
            {
              "internalType": "address",
              "name": "recipient",
              "type": "address"
            },
            {
              "components": [
                {
                  "internalType": "uint256",
                  "name": "value",
                  "type": "uint256"
                }
              ],
              "internalType": "struct Decimal.D256",
              "name": "sellOnShare",
              "type": "tuple"
            }
          ],
          "indexed": false,
          "internalType": "struct IMarket.Bid",
          "name": "bid",
          "type": "tuple"
        }
      ],
      "name": "BidFinalized",
      "type": "event"
    },
    {
      "anonymous": false,
      "inputs": [
        {
          "indexed": true,
          "internalType": "uint256",
          "name": "tokenId",
          "type": "uint256"
        },
        {
          "components": [
            {
              "internalType": "uint256",
              "name": "amount",
              "type": "uint256"
            },
            {
              "internalType": "address",
              "name": "currency",
              "type": "address"
            },
            {
              "internalType": "address",
              "name": "bidder",
              "type": "address"
            },
            {
              "internalType": "address",
              "name": "recipient",
              "type": "address"
            },
            {
              "components": [
                {
                  "internalType": "uint256",
                  "name": "value",
                  "type": "uint256"
                }
              ],
              "internalType": "struct Decimal.D256",
              "name": "sellOnShare",
              "type": "tuple"
            }
          ],
          "indexed": false,
          "internalType": "struct IMarket.Bid",
          "name": "bid",
          "type": "tuple"
        }
      ],
      "name": "BidRemoved",
      "type": "event"
    },
    {
      "anonymous": false,
      "inputs": [
        {
          "indexed": true,
          "internalType": "uint256",
          "name": "tokenId",
          "type": "uint256"
        },
        {
          "components": [
            {
              "components": [
                {
                  "internalType": "uint256",
                  "name": "value",
                  "type": "uint256"
                }
              ],
              "internalType": "struct Decimal.D256",
              "name": "prevOwner",
              "type": "tuple"
            },
            {
              "components": [
                {
                  "internalType": "uint256",
                  "name": "value",
                  "type": "uint256"
                }
              ],
              "internalType": "struct Decimal.D256",
              "name": "creator",
              "type": "tuple"
            },
            {
              "components": [
                {
                  "internalType": "uint256",
                  "name": "value",
                  "type": "uint256"
                }
              ],
              "internalType": "struct Decimal.D256",
              "name": "owner",
              "type": "tuple"
            }
          ],
          "indexed": false,
          "internalType": "struct IMarket.BidShares",
          "name": "bidShares",
          "type": "tuple"
        }
      ],
      "name": "BidShareUpdated",
      "type": "event"
    },
    {
      "inputs": [],
      "name": "mediaContract",
      "outputs": [
        {
          "internalType": "address",
          "name": "",
          "type": "address"
        }
      ],
      "stateMutability": "view",
      "type": "function",
      "constant": true
    },
    {
      "inputs": [
        {
          "internalType": "uint256",
          "name": "tokenId",
          "type": "uint256"
        },
        {
          "internalType": "address",
          "name": "bidder",
          "type": "address"
        }
      ],
      "name": "bidForTokenBidder",
      "outputs": [
        {
          "components": [
            {
              "internalType": "uint256",
              "name": "amount",
              "type": "uint256"
            },
            {
              "internalType": "address",
              "name": "currency",
              "type": "address"
            },
            {
              "internalType": "address",
              "name": "bidder",
              "type": "address"
            },
            {
              "internalType": "address",
              "name": "recipient",
              "type": "address"
            },
            {
              "components": [
                {
                  "internalType": "uint256",
                  "name": "value",
                  "type": "uint256"
                }
              ],
              "internalType": "struct Decimal.D256",
              "name": "sellOnShare",
              "type": "tuple"
            }
          ],
          "internalType": "struct IMarket.Bid",
          "name": "",
          "type": "tuple"
        }
      ],
      "stateMutability": "view",
      "type": "function",
      "constant": true
    },
    {
      "inputs": [
        {
          "internalType": "uint256",
          "name": "tokenId",
          "type": "uint256"
        }
      ],
      "name": "currentAskForToken",
      "outputs": [
        {
          "components": [
            {
              "internalType": "uint256",
              "name": "amount",
              "type": "uint256"
            },
            {
              "internalType": "address",
              "name": "currency",
              "type": "address"
            }
          ],
          "internalType": "struct IMarket.Ask",
          "name": "",
          "type": "tuple"
        }
      ],
      "stateMutability": "view",
      "type": "function",
      "constant": true
    },
    {
      "inputs": [
        {
          "internalType": "uint256",
          "name": "tokenId",
          "type": "uint256"
        }
      ],
      "name": "bidSharesForToken",
      "outputs": [
        {
          "components": [
            {
              "components": [
                {
                  "internalType": "uint256",
                  "name": "value",
                  "type": "uint256"
                }
              ],
              "internalType": "struct Decimal.D256",
              "name": "prevOwner",
              "type": "tuple"
            },
            {
              "components": [
                {
                  "internalType": "uint256",
                  "name": "value",
                  "type": "uint256"
                }
              ],
              "internalType": "struct Decimal.D256",
              "name": "creator",
              "type": "tuple"
            },
            {
              "components": [
                {
                  "internalType": "uint256",
                  "name": "value",
                  "type": "uint256"
                }
              ],
              "internalType": "struct Decimal.D256",
              "name": "owner",
              "type": "tuple"
            }
          ],
          "internalType": "struct IMarket.BidShares",
          "name": "",
          "type": "tuple"
        }
      ],
      "stateMutability": "view",
      "type": "function",
      "constant": true
    },
    {
      "inputs": [
        {
          "internalType": "uint256",
          "name": "tokenId",
          "type": "uint256"
        },
        {
          "internalType": "uint256",
          "name": "bidAmount",
          "type": "uint256"
        }
      ],
      "name": "isValidBid",
      "outputs": [
        {
          "internalType": "bool",
          "name": "",
          "type": "bool"
        }
      ],
      "stateMutability": "view",
      "type": "function",
      "constant": true
    },
    {
      "inputs": [
        {
          "components": [
            {
              "components": [
                {
                  "internalType": "uint256",
                  "name": "value",
                  "type": "uint256"
                }
              ],
              "internalType": "struct Decimal.D256",
              "name": "prevOwner",
              "type": "tuple"
            },
            {
              "components": [
                {
                  "internalType": "uint256",
                  "name": "value",
                  "type": "uint256"
                }
              ],
              "internalType": "struct Decimal.D256",
              "name": "creator",
              "type": "tuple"
            },
            {
              "components": [
                {
                  "internalType": "uint256",
                  "name": "value",
                  "type": "uint256"
                }
              ],
              "internalType": "struct Decimal.D256",
              "name": "owner",
              "type": "tuple"
            }
          ],
          "internalType": "struct IMarket.BidShares",
          "name": "bidShares",
          "type": "tuple"
        }
      ],
      "name": "isValidBidShares",
      "outputs": [
        {
          "internalType": "bool",
          "name": "",
          "type": "bool"
        }
      ],
      "stateMutability": "pure",
      "type": "function",
      "constant": true
    },
    {
      "inputs": [
        {
          "components": [
            {
              "internalType": "uint256",
              "name": "value",
              "type": "uint256"
            }
          ],
          "internalType": "struct Decimal.D256",
          "name": "sharePercentage",
          "type": "tuple"
        },
        {
          "internalType": "uint256",
          "name": "amount",
          "type": "uint256"
        }
      ],
      "name": "splitShare",
      "outputs": [
        {
          "internalType": "uint256",
          "name": "",
          "type": "uint256"
        }
      ],
      "stateMutability": "pure",
      "type": "function",
      "constant": true
    },
    {
      "inputs": [
        {
          "internalType": "address",
          "name": "mediaContractAddress",
          "type": "address"
        }
      ],
      "name": "configure",
      "outputs": [],
      "stateMutability": "nonpayable",
      "type": "function"
    },
    {
      "inputs": [
        {
          "internalType": "uint256",
          "name": "tokenId",
          "type": "uint256"
        },
        {
          "components": [
            {
              "components": [
                {
                  "internalType": "uint256",
                  "name": "value",
                  "type": "uint256"
                }
              ],
              "internalType": "struct Decimal.D256",
              "name": "prevOwner",
              "type": "tuple"
            },
            {
              "components": [
                {
                  "internalType": "uint256",
                  "name": "value",
                  "type": "uint256"
                }
              ],
              "internalType": "struct Decimal.D256",
              "name": "creator",
              "type": "tuple"
            },
            {
              "components": [
                {
                  "internalType": "uint256",
                  "name": "value",
                  "type": "uint256"
                }
              ],
              "internalType": "struct Decimal.D256",
              "name": "owner",
              "type": "tuple"
            }
          ],
          "internalType": "struct IMarket.BidShares",
          "name": "bidShares",
          "type": "tuple"
        }
      ],
      "name": "setBidShares",
      "outputs": [],
      "stateMutability": "nonpayable",
      "type": "function"
    },
    {
      "inputs": [
        {
          "internalType": "uint256",
          "name": "tokenId",
          "type": "uint256"
        },
        {
          "components": [
            {
              "internalType": "uint256",
              "name": "amount",
              "type": "uint256"
            },
            {
              "internalType": "address",
              "name": "currency",
              "type": "address"
            }
          ],
          "internalType": "struct IMarket.Ask",
          "name": "ask",
          "type": "tuple"
        }
      ],
      "name": "setAsk",
      "outputs": [],
      "stateMutability": "nonpayable",
      "type": "function"
    },
    {
      "inputs": [
        {
          "internalType": "uint256",
          "name": "tokenId",
          "type": "uint256"
        }
      ],
      "name": "removeAsk",
      "outputs": [],
      "stateMutability": "nonpayable",
      "type": "function"
    },
    {
      "inputs": [
        {
          "internalType": "uint256",
          "name": "tokenId",
          "type": "uint256"
        },
        {
          "components": [
            {
              "internalType": "uint256",
              "name": "amount",
              "type": "uint256"
            },
            {
              "internalType": "address",
              "name": "currency",
              "type": "address"
            },
            {
              "internalType": "address",
              "name": "bidder",
              "type": "address"
            },
            {
              "internalType": "address",
              "name": "recipient",
              "type": "address"
            },
            {
              "components": [
                {
                  "internalType": "uint256",
                  "name": "value",
                  "type": "uint256"
                }
              ],
              "internalType": "struct Decimal.D256",
              "name": "sellOnShare",
              "type": "tuple"
            }
          ],
          "internalType": "struct IMarket.Bid",
          "name": "bid",
          "type": "tuple"
        },
        {
          "internalType": "address",
          "name": "spender",
          "type": "address"
        }
      ],
      "name": "setBid",
      "outputs": [],
      "stateMutability": "nonpayable",
      "type": "function"
    },
    {
      "inputs": [
        {
          "internalType": "uint256",
          "name": "tokenId",
          "type": "uint256"
        },
        {
          "internalType": "address",
          "name": "bidder",
          "type": "address"
        }
      ],
      "name": "removeBid",
      "outputs": [],
      "stateMutability": "nonpayable",
      "type": "function"
    },
    {
      "inputs": [
        {
          "internalType": "uint256",
          "name": "tokenId",
          "type": "uint256"
        },
        {
          "components": [
            {
              "internalType": "uint256",
              "name": "amount",
              "type": "uint256"
            },
            {
              "internalType": "address",
              "name": "currency",
              "type": "address"
            },
            {
              "internalType": "address",
              "name": "bidder",
              "type": "address"
            },
            {
              "internalType": "address",
              "name": "recipient",
              "type": "address"
            },
            {
              "components": [
                {
                  "internalType": "uint256",
                  "name": "value",
                  "type": "uint256"
                }
              ],
              "internalType": "struct Decimal.D256",
              "name": "sellOnShare",
              "type": "tuple"
            }
          ],
          "internalType": "struct IMarket.Bid",
          "name": "expectedBid",
          "type": "tuple"
        }
      ],
      "name": "acceptBid",
      "outputs": [],
      "stateMutability": "nonpayable",
      "type": "function"
    }
  ],
  "bytecode": "0x608060405234801561001057600080fd5b5033600160006101000a81548173ffffffffffffffffffffffffffffffffffffffff021916908373ffffffffffffffffffffffffffffffffffffffff160217905550613ec6806100616000396000f3fe608060405234801561001057600080fd5b50600436106100ea5760003560e01c8063776a08351161008c578063ba33939911610066578063ba3393991461026d578063bdb5869814610289578063eb55683a146102a5578063f9ce0582146102c1576100ea565b8063776a0835146101f1578063ad827dc41461020d578063b920c1231461023d576100ea565b80634e21f9c0116100c85780634e21f9c01461016b578063578064f61461018957806362f24b70146101b957806375cb2672146101d5576100ea565b806302e8fe13146100ef57806328220f351461011f578063360636eb1461013b575b600080fd5b61010960048036038101906101049190612c08565b6102f1565b604051610116919061364e565b60405180910390f35b61013960048036038101906101349190612a77565b6103ab565b005b61015560048036038101906101509190612a12565b6104cb565b604051610162919061364e565b60405180910390f35b610173610533565b60405161018091906135d3565b60405180910390f35b6101a3600480360381019061019e9190612a77565b610557565b6040516101b091906138eb565b60405180910390f35b6101d360048036038101906101ce9190612b05565b6105e4565b005b6101ef60048036038101906101ea9190612997565b610763565b005b61020b60048036038101906102069190612ac9565b610935565b005b61022760048036038101906102229190612ac9565b610bdf565b6040516102349190613957565b60405180910390f35b61025760048036038101906102529190612a3b565b610d74565b604051610264919061398d565b60405180910390f35b61028760048036038101906102829190612b7d565b610d9b565b005b6102a3600480360381019061029e9190612bb9565b611169565b005b6102bf60048036038101906102ba9190612b41565b61198e565b005b6102db60048036038101906102d69190612a77565b611af6565b6040516102e89190613921565b60405180910390f35b6000806102fd84611af6565b9050610308816104cb565b610347576040517f08c379a000000000000000000000000000000000000000000000000000000000815260040161033e9061382b565b60405180910390fd5b600083141580156103a2575061039f610364826040015185610d74565b610391610375846000015187610d74565b610383856020015188610d74565b611b7d90919063ffffffff16565b611b7d90919063ffffffff16565b83145b91505092915050565b3373ffffffffffffffffffffffffffffffffffffffff1660008054906101000a900473ffffffffffffffffffffffffffffffffffffffff1673ffffffffffffffffffffffffffffffffffffffff1614610439576040517f08c379a0000000000000000000000000000000000000000000000000000000008152600401610430906137eb565b60405180910390fd5b807fbf58f6d6c7d7c6efc69e7444efa93ed26d7cdc0e82e12a37df96f36a367561df6004600084815260200190815260200160002060405161047b9190613906565b60405180910390a2600460008281526020019081526020016000206000808201600090556001820160006101000a81549073ffffffffffffffffffffffffffffffffffffffff0219169055505050565b60006104ee6012600a6104de9190613b0e565b6064611b9390919063ffffffff16565b61052b83600001516000015161051d856040015160000151866020015160000151611b7d90919063ffffffff16565b611b7d90919063ffffffff16565b149050919050565b60008054906101000a900473ffffffffffffffffffffffffffffffffffffffff1681565b61055f6126ba565b60046000838152602001908152602001600020604051806040016040529081600082015481526020016001820160009054906101000a900473ffffffffffffffffffffffffffffffffffffffff1673ffffffffffffffffffffffffffffffffffffffff1673ffffffffffffffffffffffffffffffffffffffff16815250509050919050565b3373ffffffffffffffffffffffffffffffffffffffff1660008054906101000a900473ffffffffffffffffffffffffffffffffffffffff1673ffffffffffffffffffffffffffffffffffffffff1614610672576040517f08c379a0000000000000000000000000000000000000000000000000000000008152600401610669906137eb565b60405180910390fd5b6106808282600001516102f1565b6106bf576040517f08c379a00000000000000000000000000000000000000000000000000000000081526004016106b69061370b565b60405180910390fd5b80600460008481526020019081526020016000206000820151816000015560208201518160010160006101000a81548173ffffffffffffffffffffffffffffffffffffffff021916908373ffffffffffffffffffffffffffffffffffffffff160217905550905050817ff7347cb9e91d8cbe995b51920ba5f92cbf84a9e09cbed3cd7a739fef4d1d07cf8260405161075791906138eb565b60405180910390a25050565b600160009054906101000a900473ffffffffffffffffffffffffffffffffffffffff1673ffffffffffffffffffffffffffffffffffffffff163373ffffffffffffffffffffffffffffffffffffffff16146107f3576040517f08c379a00000000000000000000000000000000000000000000000000000000081526004016107ea906137ab565b60405180910390fd5b600073ffffffffffffffffffffffffffffffffffffffff1660008054906101000a900473ffffffffffffffffffffffffffffffffffffffff1673ffffffffffffffffffffffffffffffffffffffff1614610882576040517f08c379a00000000000000000000000000000000000000000000000000000000081526004016108799061386b565b60405180910390fd5b600073ffffffffffffffffffffffffffffffffffffffff168173ffffffffffffffffffffffffffffffffffffffff1614156108f2576040517f08c379a00000000000000000000000000000000000000000000000000000000081526004016108e9906138cb565b60405180910390fd5b806000806101000a81548173ffffffffffffffffffffffffffffffffffffffff021916908373ffffffffffffffffffffffffffffffffffffffff16021790555050565b3373ffffffffffffffffffffffffffffffffffffffff1660008054906101000a900473ffffffffffffffffffffffffffffffffffffffff1673ffffffffffffffffffffffffffffffffffffffff16146109c3576040517f08c379a00000000000000000000000000000000000000000000000000000000081526004016109ba906137eb565b60405180910390fd5b60006002600084815260200190815260200160002060008373ffffffffffffffffffffffffffffffffffffffff1673ffffffffffffffffffffffffffffffffffffffff168152602001908152602001600020905060008160000154905060008260010160009054906101000a900473ffffffffffffffffffffffffffffffffffffffff1690506000836000015411610a90576040517f08c379a0000000000000000000000000000000000000000000000000000000008152600401610a879061372b565b60405180910390fd5b6000819050857fcbebd567b8a5c57f63ec61dc46746aab28daff6bdd1f4a6a0a305c17fa5465c985604051610ac59190613972565b60405180910390a26002600087815260200190815260200160002060008673ffffffffffffffffffffffffffffffffffffffff1673ffffffffffffffffffffffffffffffffffffffff1681526020019081526020016000206000808201600090556001820160006101000a81549073ffffffffffffffffffffffffffffffffffffffff02191690556002820160006101000a81549073ffffffffffffffffffffffffffffffffffffffff02191690556003820160006101000a81549073ffffffffffffffffffffffffffffffffffffffff02191690556004820160008082016000905550505050610bd785848373ffffffffffffffffffffffffffffffffffffffff16611ba99092919063ffffffff16565b505050505050565b610be76126ea565b6002600084815260200190815260200160002060008373ffffffffffffffffffffffffffffffffffffffff1673ffffffffffffffffffffffffffffffffffffffff1681526020019081526020016000206040518060a0016040529081600082015481526020016001820160009054906101000a900473ffffffffffffffffffffffffffffffffffffffff1673ffffffffffffffffffffffffffffffffffffffff1673ffffffffffffffffffffffffffffffffffffffff1681526020016002820160009054906101000a900473ffffffffffffffffffffffffffffffffffffffff1673ffffffffffffffffffffffffffffffffffffffff1673ffffffffffffffffffffffffffffffffffffffff1681526020016003820160009054906101000a900473ffffffffffffffffffffffffffffffffffffffff1673ffffffffffffffffffffffffffffffffffffffff1673ffffffffffffffffffffffffffffffffffffffff1681526020016004820160405180602001604052908160008201548152505081525050905092915050565b6000610d936064610d858486611c2f565b611c5590919063ffffffff16565b905092915050565b3373ffffffffffffffffffffffffffffffffffffffff1660008054906101000a900473ffffffffffffffffffffffffffffffffffffffff1673ffffffffffffffffffffffffffffffffffffffff1614610e29576040517f08c379a0000000000000000000000000000000000000000000000000000000008152600401610e20906137eb565b60405180910390fd5b6000600260008481526020019081526020016000206000836040016020810190610e539190612997565b73ffffffffffffffffffffffffffffffffffffffff1673ffffffffffffffffffffffffffffffffffffffff1681526020019081526020016000206040518060a0016040529081600082015481526020016001820160009054906101000a900473ffffffffffffffffffffffffffffffffffffffff1673ffffffffffffffffffffffffffffffffffffffff1673ffffffffffffffffffffffffffffffffffffffff1681526020016002820160009054906101000a900473ffffffffffffffffffffffffffffffffffffffff1673ffffffffffffffffffffffffffffffffffffffff1673ffffffffffffffffffffffffffffffffffffffff1681526020016003820160009054906101000a900473ffffffffffffffffffffffffffffffffffffffff1673ffffffffffffffffffffffffffffffffffffffff1673ffffffffffffffffffffffffffffffffffffffff16815260200160048201604051806020016040529081600082015481525050815250509050600081600001511161100b576040517f08c379a00000000000000000000000000000000000000000000000000000000081526004016110029061378b565b60405180910390fd5b8160000135816000015114801561106357508160200160208101906110309190612997565b73ffffffffffffffffffffffffffffffffffffffff16816020015173ffffffffffffffffffffffffffffffffffffffff16145b801561107d57508160800160000135816080015160000151145b80156110ca57508160600160208101906110979190612997565b73ffffffffffffffffffffffffffffffffffffffff16816060015173ffffffffffffffffffffffffffffffffffffffff16145b611109576040517f08c379a0000000000000000000000000000000000000000000000000000000008152600401611100906137cb565b60405180910390fd5b6111178382600001516102f1565b611156576040517f08c379a000000000000000000000000000000000000000000000000000000000815260040161114d906136cb565b60405180910390fd5b611164838260400151611c6b565b505050565b3373ffffffffffffffffffffffffffffffffffffffff1660008054906101000a900473ffffffffffffffffffffffffffffffffffffffff1673ffffffffffffffffffffffffffffffffffffffff16146111f7576040517f08c379a00000000000000000000000000000000000000000000000000000000081526004016111ee906137eb565b60405180910390fd5b600060036000858152602001908152602001600020604051806060016040529081600082016040518060200160405290816000820154815250508152602001600182016040518060200160405290816000820154815250508152602001600282016040518060200160405290816000820154815250508152505090506112946012600a6112849190613b0e565b6064611b9390919063ffffffff16565b6112b7846080015160000151836020015160000151611b7d90919063ffffffff16565b11156112f8576040517f08c379a00000000000000000000000000000000000000000000000000000000081526004016112ef9061380b565b60405180910390fd5b600073ffffffffffffffffffffffffffffffffffffffff16836040015173ffffffffffffffffffffffffffffffffffffffff16141561136c576040517f08c379a0000000000000000000000000000000000000000000000000000000008152600401611363906136eb565b60405180910390fd5b6000836000015114156113b4576040517f08c379a00000000000000000000000000000000000000000000000000000000081526004016113ab9061376b565b60405180910390fd5b600073ffffffffffffffffffffffffffffffffffffffff16836020015173ffffffffffffffffffffffffffffffffffffffff161415611428576040517f08c379a000000000000000000000000000000000000000000000000000000000815260040161141f906136ab565b60405180910390fd5b600073ffffffffffffffffffffffffffffffffffffffff16836060015173ffffffffffffffffffffffffffffffffffffffff16141561149c576040517f08c379a00000000000000000000000000000000000000000000000000000000081526004016114939061388b565b60405180910390fd5b6000600260008681526020019081526020016000206000856040015173ffffffffffffffffffffffffffffffffffffffff1673ffffffffffffffffffffffffffffffffffffffff16815260200190815260200160002090506000816000015411156115105761150f858560400151610935565b5b60008460200151905060008173ffffffffffffffffffffffffffffffffffffffff166370a08231306040518263ffffffff1660e01b815260040161155491906135d3565b60206040518083038186803b15801561156c57600080fd5b505afa158015611580573d6000803e3d6000fd5b505050506040513d601f19601f820116820180604052508101906115a49190612aa0565b90506115d7853088600001518573ffffffffffffffffffffffffffffffffffffffff1661237e909392919063ffffffff16565b60008273ffffffffffffffffffffffffffffffffffffffff166370a08231306040518263ffffffff1660e01b815260040161161291906135d3565b60206040518083038186803b15801561162a57600080fd5b505afa15801561163e573d6000803e3d6000fd5b505050506040513d601f19601f820116820180604052508101906116629190612aa0565b90506040518060a00160405280611682848461240790919063ffffffff16565b8152602001886020015173ffffffffffffffffffffffffffffffffffffffff168152602001886040015173ffffffffffffffffffffffffffffffffffffffff168152602001886060015173ffffffffffffffffffffffffffffffffffffffff1681526020018860800151815250600260008a81526020019081526020016000206000896040015173ffffffffffffffffffffffffffffffffffffffff1673ffffffffffffffffffffffffffffffffffffffff1681526020019081526020016000206000820151816000015560208201518160010160006101000a81548173ffffffffffffffffffffffffffffffffffffffff021916908373ffffffffffffffffffffffffffffffffffffffff16021790555060408201518160020160006101000a81548173ffffffffffffffffffffffffffffffffffffffff021916908373ffffffffffffffffffffffffffffffffffffffff16021790555060608201518160030160006101000a81548173ffffffffffffffffffffffffffffffffffffffff021916908373ffffffffffffffffffffffffffffffffffffffff160217905550608082015181600401600082015181600001555050905050877f327bc9021bfbee403a11b13dd6c819999006aff090cc129f07e9f2840af38dd58860405161186a9190613957565b60405180910390a2600073ffffffffffffffffffffffffffffffffffffffff16600460008a815260200190815260200160002060010160009054906101000a900473ffffffffffffffffffffffffffffffffffffffff1673ffffffffffffffffffffffffffffffffffffffff161415801561194a57506004600089815260200190815260200160002060010160009054906101000a900473ffffffffffffffffffffffffffffffffffffffff1673ffffffffffffffffffffffffffffffffffffffff16876020015173ffffffffffffffffffffffffffffffffffffffff16145b801561197057506004600089815260200190815260200160002060000154876000015110155b1561198457611983888860400151611c6b565b5b5050505050505050565b3373ffffffffffffffffffffffffffffffffffffffff1660008054906101000a900473ffffffffffffffffffffffffffffffffffffffff1673ffffffffffffffffffffffffffffffffffffffff1614611a1c576040517f08c379a0000000000000000000000000000000000000000000000000000000008152600401611a13906137eb565b60405180910390fd5b611a25816104cb565b611a64576040517f08c379a0000000000000000000000000000000000000000000000000000000008152600401611a5b9061368b565b60405180910390fd5b8060036000848152602001908152602001600020600082015181600001600082015181600001555050602082015181600101600082015181600001555050604082015181600201600082015181600001555050905050817fdb88d4e96cb8697aaee5e575ee5f460817709a1dfcfbf7ba15192e90b5c86f9f82604051611aea9190613921565b60405180910390a25050565b611afe612761565b6003600083815260200190815260200160002060405180606001604052908160008201604051806020016040529081600082015481525050815260200160018201604051806020016040529081600082015481525050815260200160028201604051806020016040529081600082015481525050815250509050919050565b60008183611b8b9190613a34565b905092915050565b60008183611ba19190613c2c565b905092915050565b611c2a8363a9059cbb60e01b8484604051602401611bc8929190613625565b604051602081830303815290604052907bffffffffffffffffffffffffffffffffffffffffffffffffffffffff19166020820180517bffffffffffffffffffffffffffffffffffffffffffffffffffffffff838183161783525050505061241d565b505050565b6000611c4d8383600001516012600a611c489190613b0e565b6124e4565b905092915050565b60008183611c639190613a8a565b905092915050565b60006002600084815260200190815260200160002060008373ffffffffffffffffffffffffffffffffffffffff1673ffffffffffffffffffffffffffffffffffffffff1681526020019081526020016000206040518060a0016040529081600082015481526020016001820160009054906101000a900473ffffffffffffffffffffffffffffffffffffffff1673ffffffffffffffffffffffffffffffffffffffff1673ffffffffffffffffffffffffffffffffffffffff1681526020016002820160009054906101000a900473ffffffffffffffffffffffffffffffffffffffff1673ffffffffffffffffffffffffffffffffffffffff1673ffffffffffffffffffffffffffffffffffffffff1681526020016003820160009054906101000a900473ffffffffffffffffffffffffffffffffffffffff1673ffffffffffffffffffffffffffffffffffffffff1673ffffffffffffffffffffffffffffffffffffffff168152602001600482016040518060200160405290816000820154815250508152505090506000600360008581526020019081526020016000209050600082602001519050611f0c60008054906101000a900473ffffffffffffffffffffffffffffffffffffffff1673ffffffffffffffffffffffffffffffffffffffff16636352211e876040518263ffffffff1660e01b8152600401611e70919061398d565b60206040518083038186803b158015611e8857600080fd5b505afa158015611e9c573d6000803e3d6000fd5b505050506040513d601f19601f82011682018060405250810190611ec091906129c0565b611ee6846002016040518060200160405290816000820154815250508660000151610d74565b8373ffffffffffffffffffffffffffffffffffffffff16611ba99092919063ffffffff16565b61200460008054906101000a900473ffffffffffffffffffffffffffffffffffffffff1673ffffffffffffffffffffffffffffffffffffffff1663e0fd045f876040518263ffffffff1660e01b8152600401611f68919061398d565b60206040518083038186803b158015611f8057600080fd5b505afa158015611f94573d6000803e3d6000fd5b505050506040513d601f19601f82011682018060405250810190611fb891906129c0565b611fde846001016040518060200160405290816000820154815250508660000151610d74565b8373ffffffffffffffffffffffffffffffffffffffff16611ba99092919063ffffffff16565b6120fc60008054906101000a900473ffffffffffffffffffffffffffffffffffffffff1673ffffffffffffffffffffffffffffffffffffffff16639d8e7260876040518263ffffffff1660e01b8152600401612060919061398d565b60206040518083038186803b15801561207857600080fd5b505afa15801561208c573d6000803e3d6000fd5b505050506040513d601f19601f820116820180604052508101906120b091906129c0565b6120d6846000016040518060200160405290816000820154815250508660000151610d74565b8373ffffffffffffffffffffffffffffffffffffffff16611ba99092919063ffffffff16565b60008054906101000a900473ffffffffffffffffffffffffffffffffffffffff1673ffffffffffffffffffffffffffffffffffffffff1663f6b630f08685606001516040518363ffffffff1660e01b815260040161215b9291906139a8565b600060405180830381600087803b15801561217557600080fd5b505af1158015612189573d6000803e3d6000fd5b5050505060405180602001604052806121fe8560800151600001516121f0600360008b8152602001908152602001600020600101600001546121e26012600a6121d29190613b0e565b6064611b9390919063ffffffff16565b61240790919063ffffffff16565b61240790919063ffffffff16565b8152508260020160008201518160000155905050826080015182600001600082015181600001559050506002600086815260200190815260200160002060008573ffffffffffffffffffffffffffffffffffffffff1673ffffffffffffffffffffffffffffffffffffffff1681526020019081526020016000206000808201600090556001820160006101000a81549073ffffffffffffffffffffffffffffffffffffffff02191690556002820160006101000a81549073ffffffffffffffffffffffffffffffffffffffff02191690556003820160006101000a81549073ffffffffffffffffffffffffffffffffffffffff02191690556004820160008082016000905550505050847fdb88d4e96cb8697aaee5e575ee5f460817709a1dfcfbf7ba15192e90b5c86f9f83604051612337919061393c565b60405180910390a2847fb6ef177c7a6f32b283a49b5e0463a39240cdaa278028dfb219480d050e8ee54c8460405161236f9190613957565b60405180910390a25050505050565b612401846323b872dd60e01b85858560405160240161239f939291906135ee565b604051602081830303815290604052907bffffffffffffffffffffffffffffffffffffffffffffffffffffffff19166020820180517bffffffffffffffffffffffffffffffffffffffffffffffffffffffff838183161783525050505061241d565b50505050565b600081836124159190613c86565b905092915050565b600061247f826040518060400160405280602081526020017f5361666545524332303a206c6f772d6c6576656c2063616c6c206661696c65648152508573ffffffffffffffffffffffffffffffffffffffff166125149092919063ffffffff16565b90506000815111156124df578080602001905181019061249f91906129e9565b6124de576040517f08c379a00000000000000000000000000000000000000000000000000000000081526004016124d5906138ab565b60405180910390fd5b5b505050565b600061250b826124fd8587611b9390919063ffffffff16565b611c5590919063ffffffff16565b90509392505050565b6060612523848460008561252c565b90509392505050565b606082471015612571576040517f08c379a00000000000000000000000000000000000000000000000000000000081526004016125689061374b565b60405180910390fd5b61257a85612640565b6125b9576040517f08c379a00000000000000000000000000000000000000000000000000000000081526004016125b09061384b565b60405180910390fd5b6000808673ffffffffffffffffffffffffffffffffffffffff1685876040516125e291906135bc565b60006040518083038185875af1925050503d806000811461261f576040519150601f19603f3d011682016040523d82523d6000602084013e612624565b606091505b5091509150612634828286612653565b92505050949350505050565b600080823b905060008111915050919050565b60608315612663578290506126b3565b6000835111156126765782518084602001fd5b816040517f08c379a00000000000000000000000000000000000000000000000000000000081526004016126aa9190613669565b60405180910390fd5b9392505050565b604051806040016040528060008152602001600073ffffffffffffffffffffffffffffffffffffffff1681525090565b6040518060a0016040528060008152602001600073ffffffffffffffffffffffffffffffffffffffff168152602001600073ffffffffffffffffffffffffffffffffffffffff168152602001600073ffffffffffffffffffffffffffffffffffffffff16815260200161275b612794565b81525090565b6040518060600160405280612774612794565b8152602001612781612794565b815260200161278e612794565b81525090565b6040518060200160405280600081525090565b6000813590506127b681613e4b565b92915050565b6000815190506127cb81613e4b565b92915050565b6000815190506127e081613e62565b92915050565b6000604082840312156127f857600080fd5b61280260406139d1565b905060006128128482850161296d565b6000830152506020612826848285016127a7565b60208301525092915050565b60006060828403121561284457600080fd5b61284e60606139d1565b9050600061285e84828501612935565b600083015250602061287284828501612935565b602083015250604061288684828501612935565b60408301525092915050565b600060a082840312156128a457600080fd5b81905092915050565b600060a082840312156128bf57600080fd5b6128c960a06139d1565b905060006128d98482850161296d565b60008301525060206128ed848285016127a7565b6020830152506040612901848285016127a7565b6040830152506060612915848285016127a7565b606083015250608061292984828501612935565b60808301525092915050565b60006020828403121561294757600080fd5b61295160206139d1565b905060006129618482850161296d565b60008301525092915050565b60008135905061297c81613e79565b92915050565b60008151905061299181613e79565b92915050565b6000602082840312156129a957600080fd5b60006129b7848285016127a7565b91505092915050565b6000602082840312156129d257600080fd5b60006129e0848285016127bc565b91505092915050565b6000602082840312156129fb57600080fd5b6000612a09848285016127d1565b91505092915050565b600060608284031215612a2457600080fd5b6000612a3284828501612832565b91505092915050565b60008060408385031215612a4e57600080fd5b6000612a5c85828601612935565b9250506020612a6d8582860161296d565b9150509250929050565b600060208284031215612a8957600080fd5b6000612a978482850161296d565b91505092915050565b600060208284031215612ab257600080fd5b6000612ac084828501612982565b91505092915050565b60008060408385031215612adc57600080fd5b6000612aea8582860161296d565b9250506020612afb858286016127a7565b9150509250929050565b60008060608385031215612b1857600080fd5b6000612b268582860161296d565b9250506020612b37858286016127e6565b9150509250929050565b60008060808385031215612b5457600080fd5b6000612b628582860161296d565b9250506020612b7385828601612832565b9150509250929050565b60008060c08385031215612b9057600080fd5b6000612b9e8582860161296d565b9250506020612baf85828601612892565b9150509250929050565b600080600060e08486031215612bce57600080fd5b6000612bdc8682870161296d565b9350506020612bed868287016128ad565b92505060c0612bfe868287016127a7565b9150509250925092565b60008060408385031215612c1b57600080fd5b6000612c298582860161296d565b9250506020612c3a8582860161296d565b9150509250929050565b612c4d81613ce4565b82525050565b612c5c81613ce4565b82525050565b612c6b81613cf6565b82525050565b6000612c7c82613a02565b612c868185613a18565b9350612c96818560208601613d2c565b80840191505092915050565b6000612cad82613a0d565b612cb78185613a23565b9350612cc7818560208601613d2c565b612cd081613e20565b840191505092915050565b6000612ce8602b83613a23565b91507f4d61726b65743a20496e76616c696420626964207368617265732c206d75737460008301527f2073756d20746f203130300000000000000000000000000000000000000000006020830152604082019050919050565b6000612d4e602883613a23565b91507f4d61726b65743a206269642063757272656e63792063616e6e6f74206265203060008301527f20616464726573730000000000000000000000000000000000000000000000006020830152604082019050919050565b6000612db4602783613a23565b91507f4d61726b65743a2042696420696e76616c696420666f7220736861726520737060008301527f6c697474696e67000000000000000000000000000000000000000000000000006020830152604082019050919050565b6000612e1a602283613a23565b91507f4d61726b65743a206269646465722063616e6e6f74206265203020616464726560008301527f73730000000000000000000000000000000000000000000000000000000000006020830152604082019050919050565b6000612e80602783613a23565b91507f4d61726b65743a2041736b20696e76616c696420666f7220736861726520737060008301527f6c697474696e67000000000000000000000000000000000000000000000000006020830152604082019050919050565b6000612ee6602583613a23565b91507f4d61726b65743a2063616e6e6f742072656d6f76652062696420616d6f756e7460008301527f206f6620300000000000000000000000000000000000000000000000000000006020830152604082019050919050565b6000612f4c602683613a23565b91507f416464726573733a20696e73756666696369656e742062616c616e636520666f60008301527f722063616c6c00000000000000000000000000000000000000000000000000006020830152604082019050919050565b6000612fb2601e83613a23565b91507f4d61726b65743a2063616e6e6f742062696420616d6f756e74206f66203000006000830152602082019050919050565b6000612ff2601e83613a23565b91507f4d61726b65743a2063616e6e6f742061636365707420626964206f66203000006000830152602082019050919050565b6000613032601283613a23565b91507f4d61726b65743a204f6e6c79206f776e657200000000000000000000000000006000830152602082019050919050565b6000613072601d83613a23565b91507f4d61726b65743a20556e65787065637465642062696420666f756e642e0000006000830152602082019050919050565b60006130b2601b83613a23565b91507f4d61726b65743a204f6e6c79206d6564696120636f6e747261637400000000006000830152602082019050919050565b60006130f2602f83613a23565b91507f4d61726b65743a2053656c6c206f6e2066656520696e76616c696420666f722060008301527f73686172652073706c697474696e6700000000000000000000000000000000006020830152604082019050919050565b6000613158602483613a23565b91507f4d61726b65743a20496e76616c6964206269642073686172657320666f72207460008301527f6f6b656e000000000000000000000000000000000000000000000000000000006020830152604082019050919050565b60006131be601d83613a23565b91507f416464726573733a2063616c6c20746f206e6f6e2d636f6e74726163740000006000830152602082019050919050565b60006131fe601a83613a23565b91507f4d61726b65743a20416c726561647920636f6e666967757265640000000000006000830152602082019050919050565b600061323e602983613a23565b91507f4d61726b65743a2062696420726563697069656e742063616e6e6f742062652060008301527f30206164647265737300000000000000000000000000000000000000000000006020830152604082019050919050565b60006132a4602a83613a23565b91507f5361666545524332303a204552433230206f7065726174696f6e20646964206e60008301527f6f742073756363656564000000000000000000000000000000000000000000006020830152604082019050919050565b600061330a603183613a23565b91507f4d61726b65743a2063616e6e6f7420736574206d6564696120636f6e7472616360008301527f74206173207a65726f20616464726573730000000000000000000000000000006020830152604082019050919050565b604082016000820151613379600085018261359e565b50602082015161338c6020850182612c44565b50505050565b6040820160008083015490506133a781613d79565b6133b4600086018261359e565b50600183015490506133c581613d5f565b6133d26020860182612c44565b5050505050565b6060820160008201516133ef6000850182613559565b5060208201516134026020850182613559565b5060408201516134156040850182613559565b50505050565b6060820160008083016134316000860182613575565b50600183016134436020860182613575565b50600283016134556040860182613575565b5050505050565b60a082016000820151613472600085018261359e565b5060208201516134856020850182612c44565b5060408201516134986040850182612c44565b5060608201516134ab6060850182612c44565b5060808201516134be6080850182613559565b50505050565b60a0820160008083015490506134d981613d79565b6134e6600086018261359e565b50600183015490506134f781613d5f565b6135046020860182612c44565b506002830154905061351581613d5f565b6135226040860182612c44565b506003830154905061353381613d5f565b6135406060860182612c44565b50600483016135526080860182613575565b5050505050565b60208201600082015161356f600085018261359e565b50505050565b60208201600080830154905061358a81613d79565b613597600086018261359e565b5050505050565b6135a781613d22565b82525050565b6135b681613d22565b82525050565b60006135c88284612c71565b915081905092915050565b60006020820190506135e86000830184612c53565b92915050565b60006060820190506136036000830186612c53565b6136106020830185612c53565b61361d60408301846135ad565b949350505050565b600060408201905061363a6000830185612c53565b61364760208301846135ad565b9392505050565b60006020820190506136636000830184612c62565b92915050565b600060208201905081810360008301526136838184612ca2565b905092915050565b600060208201905081810360008301526136a481612cdb565b9050919050565b600060208201905081810360008301526136c481612d41565b9050919050565b600060208201905081810360008301526136e481612da7565b9050919050565b6000602082019050818103600083015261370481612e0d565b9050919050565b6000602082019050818103600083015261372481612e73565b9050919050565b6000602082019050818103600083015261374481612ed9565b9050919050565b6000602082019050818103600083015261376481612f3f565b9050919050565b6000602082019050818103600083015261378481612fa5565b9050919050565b600060208201905081810360008301526137a481612fe5565b9050919050565b600060208201905081810360008301526137c481613025565b9050919050565b600060208201905081810360008301526137e481613065565b9050919050565b60006020820190508181036000830152613804816130a5565b9050919050565b60006020820190508181036000830152613824816130e5565b9050919050565b600060208201905081810360008301526138448161314b565b9050919050565b60006020820190508181036000830152613864816131b1565b9050919050565b60006020820190508181036000830152613884816131f1565b9050919050565b600060208201905081810360008301526138a481613231565b9050919050565b600060208201905081810360008301526138c481613297565b9050919050565b600060208201905081810360008301526138e4816132fd565b9050919050565b60006040820190506139006000830184613363565b92915050565b600060408201905061391b6000830184613392565b92915050565b600060608201905061393660008301846133d9565b92915050565b6000606082019050613951600083018461341b565b92915050565b600060a08201905061396c600083018461345c565b92915050565b600060a08201905061398760008301846134c4565b92915050565b60006020820190506139a260008301846135ad565b92915050565b60006040820190506139bd60008301856135ad565b6139ca6020830184612c53565b9392505050565b6000604051905081810181811067ffffffffffffffff821117156139f8576139f7613df1565b5b8060405250919050565b600081519050919050565b600081519050919050565b600081905092915050565b600082825260208201905092915050565b6000613a3f82613d22565b9150613a4a83613d22565b9250827fffffffffffffffffffffffffffffffffffffffffffffffffffffffffffffffff03821115613a7f57613a7e613d93565b5b828201905092915050565b6000613a9582613d22565b9150613aa083613d22565b925082613ab057613aaf613dc2565b5b828204905092915050565b6000808291508390505b6001851115613b0557808604811115613ae157613ae0613d93565b5b6001851615613af05780820291505b8081029050613afe85613e3e565b9450613ac5565b94509492505050565b6000613b1982613d22565b9150613b2483613d22565b9250613b517fffffffffffffffffffffffffffffffffffffffffffffffffffffffffffffffff8484613b59565b905092915050565b600082613b695760019050613c25565b81613b775760009050613c25565b8160018114613b8d5760028114613b9757613bc6565b6001915050613c25565b60ff841115613ba957613ba8613d93565b5b8360020a915084821115613bc057613bbf613d93565b5b50613c25565b5060208310610133831016604e8410600b8410161715613bfb5782820a905083811115613bf657613bf5613d93565b5b613c25565b613c088484846001613abb565b92509050818404811115613c1f57613c1e613d93565b5b81810290505b9392505050565b6000613c3782613d22565b9150613c4283613d22565b9250817fffffffffffffffffffffffffffffffffffffffffffffffffffffffffffffffff0483118215151615613c7b57613c7a613d93565b5b828202905092915050565b6000613c9182613d22565b9150613c9c83613d22565b925082821015613caf57613cae613d93565b5b828203905092915050565b600073ffffffffffffffffffffffffffffffffffffffff82169050919050565b6000819050919050565b6000613cef82613d02565b9050919050565b60008115159050919050565b600073ffffffffffffffffffffffffffffffffffffffff82169050919050565b6000819050919050565b60005b83811015613d4a578082015181840152602081019050613d2f565b83811115613d59576000848401525b50505050565b6000613d72613d6d83613e31565b613cba565b9050919050565b6000613d8c613d8783613e31565b613cda565b9050919050565b7f4e487b7100000000000000000000000000000000000000000000000000000000600052601160045260246000fd5b7f4e487b7100000000000000000000000000000000000000000000000000000000600052601260045260246000fd5b7f4e487b7100000000000000000000000000000000000000000000000000000000600052604160045260246000fd5b6000601f19601f8301169050919050565b60008160001c9050919050565b60008160011c9050919050565b613e5481613ce4565b8114613e5f57600080fd5b50565b613e6b81613cf6565b8114613e7657600080fd5b50565b613e8281613d22565b8114613e8d57600080fd5b5056fea26469706673582212209011117fbcd96ea20e9681d5f71d0fa038b8a19bd5732da1dfb1a717978714b564736f6c63430008000033",
  "immutableReferences": {},
  "source": "// SPDX-License-Identifier: GPL-3.0\r\n\r\npragma solidity >=0.4.22 <0.9.0;\r\npragma experimental ABIEncoderV2;\r\n\r\nimport {SafeMath} from \"@openzeppelin/contracts/utils/math/SafeMath.sol\";\r\nimport {IERC721} from \"@openzeppelin/contracts/token/ERC721/IERC721.sol\";\r\nimport {IERC20} from \"@openzeppelin/contracts/token/ERC20/IERC20.sol\";\r\nimport {SafeERC20} from \"@openzeppelin/contracts/token/ERC20/utils/SafeERC20.sol\";\r\nimport {Decimal} from \"./Decimal.sol\";\r\nimport {Media} from \"./Media.sol\";\r\nimport {IMarket} from \"./interfaces/IMarket.sol\";\r\n\r\n/**\r\n * @title A Market for pieces of media\r\n * @notice This contract contains all of the market logic for Media\r\n */\r\ncontract Market is IMarket {\r\n    using SafeMath for uint256;\r\n    using SafeERC20 for IERC20;\r\n\r\n    /* *******\r\n     * Globals\r\n     * *******\r\n     */\r\n    // Address of the media contract that can call this market\r\n    address public mediaContract;\r\n\r\n    // Deployment Address\r\n    address private _owner;\r\n\r\n    // Mapping from token to mapping from bidder to bid\r\n    mapping(uint256 => mapping(address => Bid)) private _tokenBidders;\r\n\r\n    // Mapping from token to the bid shares for the token\r\n    mapping(uint256 => BidShares) private _bidShares;\r\n\r\n    // Mapping from token to the current ask for the token\r\n    mapping(uint256 => Ask) private _tokenAsks;\r\n\r\n    /* *********\r\n     * Modifiers\r\n     * *********\r\n     */\r\n\r\n    /**\r\n     * @notice require that the msg.sender is the configured media contract\r\n     */\r\n    modifier onlyMediaCaller() {\r\n        require(mediaContract == msg.sender, \"Market: Only media contract\");\r\n        _;\r\n    }\r\n\r\n    /* ****************\r\n     * View Functions\r\n     * ****************\r\n     */\r\n    function bidForTokenBidder(uint256 tokenId, address bidder)\r\n        external\r\n        view\r\n        override\r\n        returns (Bid memory)\r\n    {\r\n        return _tokenBidders[tokenId][bidder];\r\n    }\r\n\r\n    function currentAskForToken(uint256 tokenId)\r\n        external\r\n        view\r\n        override\r\n        returns (Ask memory)\r\n    {\r\n        return _tokenAsks[tokenId];\r\n    }\r\n\r\n    function bidSharesForToken(uint256 tokenId)\r\n        public\r\n        view\r\n        override\r\n        returns (BidShares memory)\r\n    {\r\n        return _bidShares[tokenId];\r\n    }\r\n\r\n    /**\r\n     * @notice Validates that the bid is valid by ensuring that the bid amount can be split perfectly into all the bid shares.\r\n     *  We do this by comparing the sum of the individual share values with the amount and ensuring they are equal. Because\r\n     *  the splitShare function uses integer division, any inconsistencies with the original and split sums would be due to\r\n     *  a bid splitting that does not perfectly divide the bid amount.\r\n     */\r\n    function isValidBid(uint256 tokenId, uint256 bidAmount)\r\n        public\r\n        view\r\n        override\r\n        returns (bool)\r\n    {\r\n        BidShares memory bidShares = bidSharesForToken(tokenId);\r\n        require(\r\n            isValidBidShares(bidShares),\r\n            \"Market: Invalid bid shares for token\"\r\n        );\r\n        return\r\n            bidAmount != 0 &&\r\n            (bidAmount ==\r\n                splitShare(bidShares.creator, bidAmount)\r\n                    .add(splitShare(bidShares.prevOwner, bidAmount))\r\n                    .add(splitShare(bidShares.owner, bidAmount)));\r\n    }\r\n\r\n    /**\r\n     * @notice Validates that the provided bid shares sum to 100\r\n     */\r\n    function isValidBidShares(BidShares memory bidShares)\r\n        public\r\n        pure\r\n        override\r\n        returns (bool)\r\n    {\r\n        return\r\n            bidShares.creator.value.add(bidShares.owner.value).add(\r\n                bidShares.prevOwner.value\r\n            ) == uint256(100).mul(Decimal.BASE);\r\n    }\r\n\r\n    /**\r\n     * @notice return a % of the specified amount. This function is used to split a bid into shares\r\n     * for a media's shareholders.\r\n     */\r\n    function splitShare(Decimal.D256 memory sharePercentage, uint256 amount)\r\n        public\r\n        pure\r\n        override\r\n        returns (uint256)\r\n    {\r\n        return Decimal.mul(amount, sharePercentage).div(100);\r\n    }\r\n\r\n    /* ****************\r\n     * Public Functions\r\n     * ****************\r\n     */\r\n\r\n    constructor() public {\r\n        _owner = msg.sender;\r\n    }\r\n\r\n    /**\r\n     * @notice Sets the media contract address. This address is the only permitted address that\r\n     * can call the mutable functions. This method can only be called once.\r\n     */\r\n    function configure(address mediaContractAddress) external override {\r\n        require(msg.sender == _owner, \"Market: Only owner\");\r\n        require(mediaContract == address(0), \"Market: Already configured\");\r\n        require(\r\n            mediaContractAddress != address(0),\r\n            \"Market: cannot set media contract as zero address\"\r\n        );\r\n\r\n        mediaContract = mediaContractAddress;\r\n    }\r\n\r\n    /**\r\n     * @notice Sets bid shares for a particular tokenId. These bid shares must\r\n     * sum to 100.\r\n     */\r\n    function setBidShares(uint256 tokenId, BidShares memory bidShares)\r\n        public\r\n        override\r\n        onlyMediaCaller\r\n    {\r\n        require(\r\n            isValidBidShares(bidShares),\r\n            \"Market: Invalid bid shares, must sum to 100\"\r\n        );\r\n        _bidShares[tokenId] = bidShares;\r\n        emit BidShareUpdated(tokenId, bidShares);\r\n    }\r\n\r\n    /**\r\n     * @notice Sets the ask on a particular media. If the ask cannot be evenly split into the media's\r\n     * bid shares, this reverts.\r\n     */\r\n    function setAsk(uint256 tokenId, Ask memory ask)\r\n        public\r\n        override\r\n        onlyMediaCaller\r\n    {\r\n        require(\r\n            isValidBid(tokenId, ask.amount),\r\n            \"Market: Ask invalid for share splitting\"\r\n        );\r\n\r\n        _tokenAsks[tokenId] = ask;\r\n        emit AskCreated(tokenId, ask);\r\n    }\r\n\r\n    /**\r\n     * @notice removes an ask for a token and emits an AskRemoved event\r\n     */\r\n    function removeAsk(uint256 tokenId) external override onlyMediaCaller {\r\n        emit AskRemoved(tokenId, _tokenAsks[tokenId]);\r\n        delete _tokenAsks[tokenId];\r\n    }\r\n\r\n    /**\r\n     * @notice Sets the bid on a particular media for a bidder. The token being used to bid\r\n     * is transferred from the spender to this contract to be held until removed or accepted.\r\n     * If another bid already exists for the bidder, it is refunded.\r\n     */\r\n    function setBid(\r\n        uint256 tokenId,\r\n        Bid memory bid,\r\n        address spender\r\n    ) public override onlyMediaCaller {\r\n        BidShares memory bidShares = _bidShares[tokenId];\r\n        require(\r\n            bidShares.creator.value.add(bid.sellOnShare.value) <=\r\n                uint256(100).mul(Decimal.BASE),\r\n            \"Market: Sell on fee invalid for share splitting\"\r\n        );\r\n        require(bid.bidder != address(0), \"Market: bidder cannot be 0 address\");\r\n        require(bid.amount != 0, \"Market: cannot bid amount of 0\");\r\n        require(\r\n            bid.currency != address(0),\r\n            \"Market: bid currency cannot be 0 address\"\r\n        );\r\n        require(\r\n            bid.recipient != address(0),\r\n            \"Market: bid recipient cannot be 0 address\"\r\n        );\r\n\r\n        Bid storage existingBid = _tokenBidders[tokenId][bid.bidder];\r\n\r\n        // If there is an existing bid, refund it before continuing\r\n        if (existingBid.amount > 0) {\r\n            removeBid(tokenId, bid.bidder);\r\n        }\r\n\r\n        IERC20 token = IERC20(bid.currency);\r\n\r\n        // We must check the balance that was actually transferred to the market,\r\n        // as some tokens impose a transfer fee and would not actually transfer the\r\n        // full amount to the market, resulting in locked funds for refunds & bid acceptance\r\n        uint256 beforeBalance = token.balanceOf(address(this));\r\n        token.safeTransferFrom(spender, address(this), bid.amount);\r\n        uint256 afterBalance = token.balanceOf(address(this));\r\n        _tokenBidders[tokenId][bid.bidder] = Bid(\r\n            afterBalance.sub(beforeBalance),\r\n            bid.currency,\r\n            bid.bidder,\r\n            bid.recipient,\r\n            bid.sellOnShare\r\n        );\r\n        emit BidCreated(tokenId, bid);\r\n\r\n        // If a bid meets the criteria for an ask, automatically accept the bid.\r\n        // If no ask is set or the bid does not meet the requirements, ignore.\r\n        if (\r\n            _tokenAsks[tokenId].currency != address(0) &&\r\n            bid.currency == _tokenAsks[tokenId].currency &&\r\n            bid.amount >= _tokenAsks[tokenId].amount\r\n        ) {\r\n            // Finalize exchange\r\n            _finalizeNFTTransfer(tokenId, bid.bidder);\r\n        }\r\n    }\r\n\r\n    /**\r\n     * @notice Removes the bid on a particular media for a bidder. The bid amount\r\n     * is transferred from this contract to the bidder, if they have a bid placed.\r\n     */\r\n    function removeBid(uint256 tokenId, address bidder)\r\n        public\r\n        override\r\n        onlyMediaCaller\r\n    {\r\n        Bid storage bid = _tokenBidders[tokenId][bidder];\r\n        uint256 bidAmount = bid.amount;\r\n        address bidCurrency = bid.currency;\r\n\r\n        require(bid.amount > 0, \"Market: cannot remove bid amount of 0\");\r\n\r\n        IERC20 token = IERC20(bidCurrency);\r\n\r\n        emit BidRemoved(tokenId, bid);\r\n        delete _tokenBidders[tokenId][bidder];\r\n        token.safeTransfer(bidder, bidAmount);\r\n    }\r\n\r\n    /**\r\n     * @notice Accepts a bid from a particular bidder. Can only be called by the media contract.\r\n     * See {_finalizeNFTTransfer}\r\n     * Provided bid must match a bid in storage. This is to prevent a race condition\r\n     * where a bid may change while the acceptBid call is in transit.\r\n     * A bid cannot be accepted if it cannot be split equally into its shareholders.\r\n     * This should only revert in rare instances (example, a low bid with a zero-decimal token),\r\n     * but is necessary to ensure fairness to all shareholders.\r\n     */\r\n    function acceptBid(uint256 tokenId, Bid calldata expectedBid)\r\n        external\r\n        override\r\n        onlyMediaCaller\r\n    {\r\n        Bid memory bid = _tokenBidders[tokenId][expectedBid.bidder];\r\n        require(bid.amount > 0, \"Market: cannot accept bid of 0\");\r\n        require(\r\n            bid.amount == expectedBid.amount &&\r\n                bid.currency == expectedBid.currency &&\r\n                bid.sellOnShare.value == expectedBid.sellOnShare.value &&\r\n                bid.recipient == expectedBid.recipient,\r\n            \"Market: Unexpected bid found.\"\r\n        );\r\n        require(\r\n            isValidBid(tokenId, bid.amount),\r\n            \"Market: Bid invalid for share splitting\"\r\n        );\r\n\r\n        _finalizeNFTTransfer(tokenId, bid.bidder);\r\n    }\r\n\r\n    /**\r\n     * @notice Given a token ID and a bidder, this method transfers the value of\r\n     * the bid to the shareholders. It also transfers the ownership of the media\r\n     * to the bid recipient. Finally, it removes the accepted bid and the current ask.\r\n     */\r\n    function _finalizeNFTTransfer(uint256 tokenId, address bidder) private {\r\n        Bid memory bid = _tokenBidders[tokenId][bidder];\r\n        BidShares storage bidShares = _bidShares[tokenId];\r\n\r\n        IERC20 token = IERC20(bid.currency);\r\n\r\n        // Transfer bid share to owner of media\r\n        token.safeTransfer(\r\n            IERC721(mediaContract).ownerOf(tokenId),\r\n            splitShare(bidShares.owner, bid.amount)\r\n        );\r\n        // Transfer bid share to creator of media\r\n        token.safeTransfer(\r\n            Media(mediaContract).tokenCreators(tokenId),\r\n            splitShare(bidShares.creator, bid.amount)\r\n        );\r\n        // Transfer bid share to previous owner of media (if applicable)\r\n        token.safeTransfer(\r\n            Media(mediaContract).previousTokenOwners(tokenId),\r\n            splitShare(bidShares.prevOwner, bid.amount)\r\n        );\r\n\r\n        // Transfer media to bid recipient\r\n        Media(mediaContract).auctionTransfer(tokenId, bid.recipient);\r\n\r\n        // Calculate the bid share for the new owner,\r\n        // equal to 100 - creatorShare - sellOnShare\r\n        bidShares.owner = Decimal.D256(\r\n            uint256(100)\r\n                .mul(Decimal.BASE)\r\n                .sub(_bidShares[tokenId].creator.value)\r\n                .sub(bid.sellOnShare.value)\r\n        );\r\n        // Set the previous owner share to the accepted bid's sell-on fee\r\n        bidShares.prevOwner = bid.sellOnShare;\r\n\r\n        // Remove the accepted bid\r\n        delete _tokenBidders[tokenId][bidder];\r\n\r\n        emit BidShareUpdated(tokenId, bidShares);\r\n        emit BidFinalized(tokenId, bid);\r\n    }\r\n}",
  "sourcePath": "C:/Users/Rahul/Zora_Os/contracts/Market.sol",
  "compiler": {
    "name": "solc",
    "version": "0.8.0+commit.c7dfd78e.Emscripten.clang"
  },
  "schemaVersion": "3.4.0",
  "updatedAt": "2021-05-05T08:48:53.075Z",
  "networkType": "ethereum",
  "devdoc": {
    "kind": "dev",
    "methods": {},
    "title": "A Market for pieces of media",
    "version": 1
  },
  "userdoc": {
    "kind": "user",
    "methods": {
      "acceptBid(uint256,(uint256,address,address,address,(uint256)))": {
        "notice": "Accepts a bid from a particular bidder. Can only be called by the media contract. See {_finalizeNFTTransfer} Provided bid must match a bid in storage. This is to prevent a race condition where a bid may change while the acceptBid call is in transit. A bid cannot be accepted if it cannot be split equally into its shareholders. This should only revert in rare instances (example, a low bid with a zero-decimal token), but is necessary to ensure fairness to all shareholders."
      },
      "configure(address)": {
        "notice": "Sets the media contract address. This address is the only permitted address that can call the mutable functions. This method can only be called once."
      },
      "isValidBid(uint256,uint256)": {
        "notice": "Validates that the bid is valid by ensuring that the bid amount can be split perfectly into all the bid shares.  We do this by comparing the sum of the individual share values with the amount and ensuring they are equal. Because  the splitShare function uses integer division, any inconsistencies with the original and split sums would be due to  a bid splitting that does not perfectly divide the bid amount."
      },
      "isValidBidShares(((uint256),(uint256),(uint256)))": {
        "notice": "Validates that the provided bid shares sum to 100"
      },
      "removeAsk(uint256)": {
        "notice": "removes an ask for a token and emits an AskRemoved event"
      },
      "removeBid(uint256,address)": {
        "notice": "Removes the bid on a particular media for a bidder. The bid amount is transferred from this contract to the bidder, if they have a bid placed."
      },
      "setAsk(uint256,(uint256,address))": {
        "notice": "Sets the ask on a particular media. If the ask cannot be evenly split into the media's bid shares, this reverts."
      },
      "setBid(uint256,(uint256,address,address,address,(uint256)),address)": {
        "notice": "Sets the bid on a particular media for a bidder. The token being used to bid is transferred from the spender to this contract to be held until removed or accepted. If another bid already exists for the bidder, it is refunded."
      },
      "setBidShares(uint256,((uint256),(uint256),(uint256)))": {
        "notice": "Sets bid shares for a particular tokenId. These bid shares must sum to 100."
      },
      "splitShare((uint256),uint256)": {
        "notice": "return a % of the specified amount. This function is used to split a bid into shares for a media's shareholders."
      }
    },
    "notice": "This contract contains all of the market logic for Media",
    "version": 1
  }
}